:020000040800F2
:1000000000000520352F0008072B00080D2B0008E5
:10001000132B0008192B00081F2B000800000000FC
:10002000000000000000000000000000252B000878
:10003000332B000800000000412B00084F2B000864
:10004000852F0008852F0008852F0008852F0008C0
:10005000852F00085B2B0008852F0008852F0008DE
:10006000852F0008852F0008852F0008852F0008A0
:10007000852F0008852F0008852F0008852F000890
:10008000852F0008852F0008852F0008852F000880
:10009000852F0008852F0008852F0008852F000870
:1000A000852F0008852F0008852F0008852F000860
:1000B000852F0008852F0008852F0008852F000850
:1000C000852F0008852F0008852F0008852F000840
:1000D000852F0008852F0008852F0008852F000830
:1000E000852F0008852F0008852F0008852F000820
:1000F000852F0008852F0008852F0008852F000810
:10010000852F0008852F0008852F0008852F0008FF
:10011000852F0008852F0008852F0008852F0008EF
:10012000852F0008852F0008852F0008852F0008DF
:10013000852F0008852F0008852F0008852F0008CF
:10014000852F0008852F0008852F0008852F0008BF
:10015000852F0008852F0008852F0008852F0008AF
:10016000852F0008852F0008852F0008852F00089F
:10017000852F0008852F0008852F0008000000004B
:10018000852F0008852F0008852F0008852F00087F
:10019000852F0008852F0008852F0008852F00086F
:1001A000692B0008852F0008852F0008852F00087F
:1001B000852F0008852F0008852F0008852F00084F
:0801C000852F0008852F0008BF
:1001D00010B5054C237833B9044B13B10448AFF381
:1001E00000800123237010BDA40000200000000047
:1001F000E4F1000808B5034B1BB103490348AFF312
:10020000008008BD00000000A8000020E4F1000804
:10021000034613F8012B002AFBD1181A0138704746
:1002200001F0FF01102A2BDB10F0070F08D010F8A7
:10023000013B013A8B422DD010F0070F42B3F6D1AB
:10024000F0B441EA012141EA014122F007047FF0C4
:1002500000070023F0E80256083C85EA010586EA1B
:10026000010685FA47F5A3FA87F586FA47F6A5FA57
:1002700087F68EB9EED1F0BC01F0FF0102F0070263
:1002800032B110F8013B013A83EA010313B1F8D10E
:100290000020704701387047002D06BF35460338EF
:1002A000073815F0010F07D1013015F4807F02BF28
:1002B000013015F4C03F0130F0BC0138704700BF79
:1002C00081F0004102E000BF83F0004330B54FEA07
:1002D00041044FEA430594EA050F08BF90EA020F74
:1002E0001FBF54EA000C55EA020C7FEA645C7FEA07
:1002F000655C00F0E2804FEA5454D4EB5555B8BF2A
:100300006D420CDD2C4480EA020281EA030382EA9A
:10031000000083EA010180EA020281EA0303362D2C
:1003200088BF30BD11F0004F4FEA01314FF4801CFF
:100330004CEA113102D0404261EB410113F0004F11
:100340004FEA03334CEA133302D0524263EB4303C8
:1003500094EA050F00F0A780A4F10104D5F1200E66
:100360000DDB02FA0EFC22FA05F2801841F10001C1
:1003700003FA0EF2801843FA05F359410EE0A5F195
:1003800020050EF1200E012A03FA0EFC28BF4CF0C6
:10039000020C43FA05F3C01851EBE37101F000457C
:1003A00007D54FF0000EDCF1000C7EEB00006EEB89
:1003B0000101B1F5801F1BD3B1F5001F0CD3490813
:1003C0005FEA30004FEA3C0C04F101044FEA44526A
:1003D00012F5800F80F09A80BCF1004F08BF5FEAF1
:1003E000500C50F1000041EB045141EA050130BDD1
:1003F0005FEA4C0C404141EB0101013C28BFB1F5E3
:10040000801FE9D291F0000F04BF01460020B1FA2D
:1004100081F308BF2033A3F10B03B3F120020CDA00
:100420000C3208DD02F1140CC2F10C0201FA0CF0DE
:1004300021FA02F10CE002F11402D8BFC2F1200C43
:1004400001FA02F120FA0CFCDCBF41EA0C019040F9
:10045000E41AA2BF01EB0451294330BD6FEA040442
:100460001F3C1CDA0C340EDC04F11404C4F120022D
:1004700020FA04F001FA02F340EA030021FA04F33F
:1004800045EA030130BDC4F10C04C4F1200220FA96
:1004900002F001FA04F340EA0300294630BD21FAD4
:1004A00004F0294630BD94F0000F83F4801306BF9A
:1004B00081F480110134013D4EE77FEA645C18BF8E
:1004C0007FEA655C29D094EA050F08BF90EA020F25
:1004D00005D054EA000C04BF1946104630BD91EA1D
:1004E000030F1EBF0021002030BD5FEA545C05D120
:1004F0004000494128BF41F0004130BD14F580045F
:100500003CBF01F5801130BD01F0004545F0FE41D2
:1005100041F470014FF0000030BD7FEA645C1ABF07
:10052000194610467FEA655C1CBF0B46024650EA3E
:10053000013406BF52EA033591EA030F41F400216A
:1005400030BD00BF90F0000F04BF0021704730B5F0
:100550004FF4806404F132044FF000054FF00001C5
:1005600050E700BF90F0000F04BF0021704730B586
:100570004FF4806404F1320410F0004548BF40425B
:100580004FF000013EE700BF42004FEAE2014FEAB0
:1005900031014FEA02701FBF12F07F4393F07F4F8B
:1005A00081F06051704732F07F4208BF704793F08E
:1005B0007F4F04BF41F40021704730B54FF46074A1
:1005C00001F0004521F000411CE700BF50EA0102A4
:1005D00008BF704730B54FF000050AE050EA01024D
:1005E00008BF704730B511F0004502D5404261EBBD
:1005F00041014FF4806404F132045FEA915C3FF4FE
:10060000D8AE4FF003025FEADC0C18BF03325FEA9A
:10061000DC0C18BF033202EBDC02C2F1200300FA4B
:1006200003FC20FA02F001FA03FE40EA0E0021FA70
:1006300002F11444BDE600BF70B54FF0FF0C4CF45E
:10064000E06C1CEA11541DBF1CEA135594EA0C0F10
:1006500095EA0C0F00F0DEF82C4481EA030621EA4B
:100660004C5123EA4C5350EA013518BF52EA033586
:1006700041F4801143F4801338D0A0FB02CE4FF038
:100680000005E1FB02E506F00042E0FB03E54FF068
:100690000006E1FB03569CF0000F18BF4EF0010E60
:1006A000A4F1FF04B6F5007F64F5407404D25FEA5C
:1006B0004E0E6D4146EB060642EAC62141EA55510F
:1006C0004FEAC52040EA5E504FEACE2EB4F1FD0C51
:1006D00088BFBCF5E06F1ED8BEF1004F08BF5FEACF
:1006E000500E50F1000041EB045170BD06F0004681
:1006F00046EA010140EA020081EA0301B4EB5C042E
:10070000C2BFD4EB0C0541EA045170BD41F4801125
:100710004FF0000E013C00F3AB8014F1360FDEBF4A
:10072000002001F0004170BDC4F10004203C35DA26
:100730000C341BDC04F11404C4F1200500FA05F3A9
:1007400020FA04F001FA05F240EA020001F000424A
:1007500021F0004110EBD37021FA04F642EB0601C0
:100760005EEA430E08BF20EAD37070BDC4F10C04EA
:10077000C4F1200500FA04F320FA05F001FA04F2AE
:1007800040EA020001F0004110EBD37041F100019A
:100790005EEA430E08BF20EAD37070BDC4F12005A5
:1007A00000FA05F24EEA020E20FA04F301FA05F20D
:1007B00043EA020321FA04F001F0004121FA04F2B5
:1007C00020EA020000EBD3705EEA430E08BF20EA85
:1007D000D37070BD94F0000F0FD101F000464000BF
:1007E00041EB010111F4801F08BF013CF7D041EA41
:1007F000060195F0000F18BF704703F00046520045
:1008000043EB030313F4801F08BF013DF7D043EA15
:100810000603704794EA0C0F0CEA135518BF95EACB
:100820000C0F0CD050EA410618BF52EA4306D1D152
:1008300081EA030101F000414FF0000070BD50EA71
:10084000410606BF1046194652EA430619D094EAFB
:100850000C0F02D150EA013613D195EA0C0F05D1E5
:1008600052EA03361CBF104619460AD181EA030139
:1008700001F0004141F0FE4141F470014FF00000F1
:1008800070BD41F0FE4141F4780170BD70B54FF08C
:10089000FF0C4CF4E06C1CEA11541DBF1CEA13550C
:1008A00094EA0C0F95EA0C0F00F0A7F8A4EB0504EE
:1008B00081EA030E52EA03354FEA013100F08880E5
:1008C0004FEA03334FF0805545EA131343EA1263AE
:1008D0004FEA022245EA111545EA10654FEA002663
:1008E0000EF000419D4208BF964244F1FD0404F51C
:1008F000407402D25B084FEA3202B61A65EB030578
:100900005B084FEA32024FF480104FF4002CB6EB34
:10091000020E75EB030E22BFB61A754640EA0C00B4
:100920005B084FEA3202B6EB020E75EB030E22BFF4
:10093000B61A754640EA5C005B084FEA3202B6EB35
:10094000020E75EB030E22BFB61A754640EA9C00F4
:100950005B084FEA3202B6EB020E75EB030E22BFC4
:10096000B61A754640EADC0055EA060E18D04FEA82
:10097000051545EA16754FEA06164FEAC30343EA22
:1009800052734FEAC2025FEA1C1CC0D111F4801FEF
:100990000BD141EA00014FF000004FF0004CB6E7E8
:1009A00011F4801F04BF01430020B4F1FD0C88BF87
:1009B000BCF5E06F3FF6AFAEB5EB030C04BFB6EB92
:1009C000020C5FEA500C50F1000041EB045170BD85
:1009D0000EF0004E4EEA113114EB5C04C2BFD4EBB2
:1009E0000C0541EA045170BD41F480114FF0000E36
:1009F000013C90E645EA060E8DE60CEA135594EAB2
:100A00000C0F08BF95EA0C0F3FF43BAF94EA0C0FB4
:100A10000AD150EA01347FF434AF95EA0C0F7FF429
:100A200025AF104619462CE795EA0C0F06D152EA7D
:100A300003353FF4FDAE1046194622E750EA410661
:100A400018BF52EA43067FF4C5AE50EA41047FF472
:100A50000DAF52EA43057FF4EBAE12E74FF0FF3CD7
:100A600006E000BF4FF0010C02E000BF4FF0010CA8
:100A70004DF804CD4FEA410C7FEA6C5C4FEA430C21
:100A800018BF7FEA6C5C1BD001B050EA410C0CBF70
:100A900052EA430C91EA030F02BF90EA020F0020D2
:100AA000704710F1000F91EA030F58BF994208BF39
:100AB00090422CBFD8176FEAE37040F001007047F6
:100AC0004FEA410C7FEA6C5C02D150EA013C07D14D
:100AD0004FEA430C7FEA6C5CD6D152EA033CD3D098
:100AE0005DF8040B704700BF8446104662468C4692
:100AF0001946634600E000BF01B5FFF7B7FF0028C5
:100B000048BF10F1000F01BD4DF808EDFFF7F4FFED
:100B10000CBF012000205DF808FB00BF4DF808ED78
:100B2000FFF7EAFF34BF012000205DF808FB00BF9B
:100B30004DF808EDFFF7E0FF94BF012000205DF8BD
:100B400008FB00BF4DF808EDFFF7CEFF94BF012072
:100B500000205DF808FB00BF4DF808EDFFF7C4FF6B
:100B600034BF012000205DF808FB00BF4FEA4102BE
:100B700012F5001215D211D56FF47873B3EB6252EF
:100B800012D94FEAC12343F0004343EA505311F016
:100B9000004F23FA02F018BF404270474FF00000A8
:100BA000704750EA013005D111F0004008BF6FF0E6
:100BB000004070474FF00000704700BF53B94AB97A
:100BC000002908BF00281CBF4FF0FF314FF0FF3055
:100BD00000F074B9ADF1080C6DE904CE00F006F830
:100BE000DDF804E0DDE9022304B070472DE9F047A9
:100BF000089D04468E46002B4DD18A42944669D901
:100C0000B2FA82F252B101FA02F3C2F1200120FAE3
:100C100001F10CFA02FC41EA030E94404FEA1C4831
:100C2000210CBEFBF8F61FFA8CF708FB16E341EA2D
:100C3000034306FB07F199420AD91CEB030306F1B3
:100C4000FF3080F01F81994240F21C81023E6344D4
:100C50005B1AA4B2B3FBF8F008FB103344EA034478
:100C600000FB07F7A7420AD91CEB040400F1FF338D
:100C700080F00A81A74240F207816444023840EACA
:100C80000640E41B00261DB1D4400023C5E9004303
:100C90003146BDE8F0878B4209D9002D00F0EF8086
:100CA0000026C5E9000130463146BDE8F087B3FAB9
:100CB00083F6002E4AD18B4202D3824200F2F980A1
:100CC000841A61EB030301209E46002DE0D0C5E9A4
:100CD000004EDDE702B9FFDEB2FA82F2002A40F0F0
:100CE0009280A1EB0C014FEA1C471FFA8CFE0126F3
:100CF000200CB1FBF7F307FB131140EA01410EFB97
:100D000003F0884208D91CEB010103F1FF3802D23D
:100D1000884200F2CB804346091AA4B2B1FBF7F037
:100D200007FB101144EA01440EFB00FEA64508D95A
:100D30001CEB040400F1FF3102D2A64500F2BB8097
:100D40000846A4EB0E0440EA03409CE7C6F12007E6
:100D5000B34022FA07FC4CEA030C20FA07F401FA2C
:100D600006F31C43F9404FEA1C4900FA06F3B1FBB5
:100D7000F9F8200C1FFA8CFE09FB181140EA01411A
:100D800008FB0EF0884202FA06F20BD91CEB0101B7
:100D900008F1FF3A80F08880884240F28580A8F10F
:100DA00002086144091AA4B2B1FBF9F009FB101161
:100DB00044EA014100FB0EFE8E4508D91CEB0101FF
:100DC00000F1FF346CD28E456AD90238614440EAA2
:100DD0000840A0FB0294A1EB0E01A142C846A64622
:100DE00056D353D05DB1B3EB080261EB0E0101FAAB
:100DF00007F722FA06F3F1401F43C5E90071002608
:100E00003146BDE8F087C2F12003D8400CFA02FC5D
:100E100021FA03F3914001434FEA1C471FFA8CFE6D
:100E2000B3FBF7F007FB10360B0C43EA064300FB5D
:100E30000EF69E4204FA02F408D91CEB030300F1FB
:100E4000FF382FD29E422DD9023863449B1B89B2B2
:100E5000B3FBF7F607FB163341EA034106FB0EF33B
:100E60008B4208D91CEB010106F1FF3816D28B42E8
:100E700014D9023E6144C91A46EA004638E72E46B4
:100E8000284605E70646E3E61846F8E64B45A9D2AC
:100E9000B9EB020864EB0C0E0138A3E74646EAE71B
:100EA000204694E74046D1E7D0467BE7023B6144C9
:100EB00032E7304609E76444023842E7704700BF32
:100EC00080B400AFBFF34F8F00BF064BDB6803F465
:100ED000E0620449044B1343CB60BFF34F8F00BF64
:100EE00000BFFDE700ED00E00400FA0580B400AFAC
:100EF000BFF34F8F00BFBFF36F8F00BF0D4B0022BA
:100F0000C3F85022BFF34F8F00BFBFF36F8F00BFF6
:100F1000084B5B69074A43F400335361BFF34F8FBB
:100F200000BFBFF36F8F00BF00BFBD465DF8047BFD
:100F3000704700BF00ED00E080B485B000AF1F4BEC
:100F40000022C3F88420BFF34F8F00BF1B4BD3F8A0
:100F500080307B607B685B0BC3F30E03FB607B68B8
:100F6000DB08C3F30903BB60FB685A0143F6E07377
:100F70001340BA68920711491343C1F86032BB6845
:100F80005A1EBA60002BEFD1FB685A1EFA60002B84
:100F9000E5D1BFF34F8F00BF084B5B69074A43F4AD
:100FA00080335361BFF34F8F00BFBFF36F8F00BF1C
:100FB00000BF1437BD465DF8047B704700ED00E0CC
:100FC00080B582B000AFFFF791FFFFF7B5FF01F0EA
:100FD000DBFF00F0F7F900F0D7FA00F0B5FA06F001
:100FE0008DFB00F07FFA00F05BFA07F015FEC04BB6
:100FF0001B6BBF4A43F480531363BD4B1B6B03F45D
:1010000080537B607B684FF488714FF4F07007F079
:10101000B9FF07F037F94FF04041012007F0CAF956
:10102000012007F027FAB34807F080FAB14807F02B
:1010300049FAB14807F02EFA0123B04A6421002092
:1010400007F0E0FA4FF47A7002F00AF8A94807F0C6
:101050006DFA00F0FBFA00F021FBA94807F0D2FF7F
:101060004FF0FF2007F02EFA0123A64A142100209A
:1010700007F0C8FA4FF0FF2007F024FAA04B5B8876
:10108000DB2B2FD99E4B5B88B3F5827F2AD89C4BF4
:101090009B89132B26D99A4B9B89322B22D89548B2
:1010A00007F044FA00F004FC4FF0FF3007F03EFA7E
:1010B0004FF0FF3007F006FA0123934A5A2100202F
:1010C00007F0A0FA0123914A6E21002007F09AFA56
:1010D0004FF47A7001F0C4FF894808F0CFF98548D1
:1010E00007F024FA864807F08DFF4FF0FF2007F045
:1010F000E9F90123864A4621002007F083FA4FF0E0
:10110000FF2007F0DFF97E4B5B88DB2B2FD97C4B70
:101110005B88B3F5827F2AD8794B9B89452B26D9EA
:10112000774B9B89642B22D8724807F0FFF900F0B7
:101130003BFC4FF0FF3007F0F9F94FF0FF3007F0BC
:10114000C1F90123734A5A21002007F05BFA0123F9
:101150006E4A6E21002007F055FA4FF47A7001F0C4
:101160007FFF674808F08AF9624807F0DFF96448B2
:1011700007F048FF4FF0FF2007F0A4F90123664A6B
:101180007821002007F03EFA4FF0FF2007F09AF98F
:101190005B4B5B88DB2B2FD9594B5B88B3F5827F88
:1011A0002AD8574B9B89772B26D9554B9B89962B51
:1011B00022D8504807F0BAF900F072FC4FF0FF3027
:1011C00007F0B4F94FF0FF3007F07CF90123514AE2
:1011D0005A21002007F016FA01234C4A6E21002004
:1011E00007F010FA4FF47A7001F03AFF444808F023
:1011F00045F9404807F09AF9414807F003FF4FF0DE
:10120000FF2007F05FF90123444AAA21002007F0DC
:10121000F9F94FF0FF2007F055F9394B5B88DB2BCC
:101220002FD9374B5B88B3F5827F2AD8344B9B8903
:10123000A92B26D9324B9B89C82B22D82D4807F0E1
:1012400075F900F059FD4FF0FF3007F06FF94FF0DE
:10125000FF3007F037F901232E4A5A21002007F00A
:10126000D1F90123294A6E21002007F0CBF94FF470
:101270007A7001F0F5FE224808F000F91D4807F0E9
:1012800055F91F4807F0BEFE4FF0FF2007F01AF98E
:101290000123234ADC21002007F0B4F94FF0FF209E
:1012A00007F010F9164B5B88DB2B4BD9144B5B888E
:1012B000B3F5827F46D8124B9B89DB2B42D9104B6A
:1012C0009B89FA2B3ED80B4807F030F900F0C6FD99
:1012D0004FF0FF3007F02AF94FF0FF3007F0F2F837
:1012E00001230C4A5A21002007F08CF91AE000BFB4
:1012F00000380240008000FF2A2AA5FFFCF1000808
:101300002C42032008F2000810F2000828F200081E
:1013100034F200083CF2000854F200085CF20008C5
:1013200064F2000801231F4A6E21002007F06AF9C9
:101330004FF47A7001F094FE1B4808F09FF81B48A8
:1013400007F0F4F801231A4A1421002007F05AF993
:101350004FF0FF2007F0B6F80123164A462100207F
:1013600007F050F94FF0FF2007F0ACF80123124AC4
:101370007821002007F046F94FF0FF2007F0A2F88F
:1013800001230E4AAA21002007F03CF94FF0FF206C
:1013900007F098F801230A4ADC21002007F032F90F
:1013A00057E600BF28F200082C420320008000FF0F
:1013B00008F2000834F2000854F200085CF2000859
:1013C00064F2000880B594B000AF07F1200330222A
:1013D000002118460CF09AF807F10C0300221A605D
:1013E0005A609A60DA601A6103F020FC2A4B1B6C89
:1013F000294A43F080531364274B1B6C03F080533E
:10140000BB60BB68254B1B68244A43F44043136010
:10141000224B1B6803F440437B607B6802233B62E2
:101420000123FB6210233B630223BB630023FB63A6
:1014300008233B64C8237B640223BB640823FB644A
:1014400007F12003184603F051FC0346002B01D09E
:1014500000F036FE03F0FAFB0346002B01D000F04B
:101460002FFE0F23FB6002233B6100237B614FF4BF
:10147000A053BB614FF48053FB6107F10C030621BD
:10148000184603F0D7FE0346002B01D000F018FEEB
:1014900000BF5037BD4680BD00380240007000409C
:1014A00080B500AF0D4B0E4A1A600C4B00221A712A
:1014B0000A4B00225A71094B00225A61074B002245
:1014C0009A61064B01221A62044801F0FFFE0346AE
:1014D000002B01D000F0F4FD00BF80BDC000002053
:1014E0000030024080B500AF154B164A1A60144B0D
:1014F00000225A60124B00229A60114B0022DA60DF
:101500000F4B00229A620E4B0022DA620C4B002233
:101510001A630B4B00225A63094802F07FF9034615
:10152000002B01D000F0CCFD0121054802F0D4FAD7
:101530000346002B01D000F0C3FD00BF80BD00BFFB
:10154000E400002000B0024080B400AF0C4B0D4A14
:101550001A600B4B00225A60094B00229A60084B1C
:101560000022DA60064B00221A61054B00225A6104
:10157000034B00229A6100BFBD465DF8047B7047B3
:1015800024010020002C014080B58AB000AF07F193
:10159000140300221A605A609A60DA601A61294BBB
:1015A0001B6B284A43F004031363264B1B6B03F0A9
:1015B00004033B613B69234B1B6B224A43F001034D
:1015C0001363204B1B6B03F00103FB60FB681D4B97
:1015D0001B6B1C4A43F0080313631A4B1B6B03F08D
:1015E0000803BB60BB68174B1B6B164A43F4807340
:1015F0001363144B1B6B03F480737B607B68114B8C
:101600001B6B104A43F0800313630E4B1B6B03F0FC
:1016100080033B603B68002202210B4802F036FD4C
:1016200002237B610123BB610023FB6100233B623A
:1016300007F114031946044802F07CFB00BF283769
:10164000BD4680BD003802400020024080B500AF9A
:1016500006F06EF803461A460C4B1A700B4B1B78BB
:10166000002B10D00A4806F061FF094806F02AFF57
:10167000084806F00FFF0123074A6421002006F006
:10168000C1FF00F015FD00BF80BD00BFA801002014
:10169000008000FF2A2AA5FF6CF2000880B500AF89
:1016A0000122104910480AF043F803461A460F4B2E
:1016B0001A700E4B1B78002B11D04FF0FF3006F044
:1016C00035FF0B4806F0FEFE0A4806F0E3FE012354
:1016D000094A6421002006F095FF00F0E9FC00BFF4
:1016E00080BD00BF84F20008AC010020A8010020EA
:1016F000008000FF2A2AA5FF88F2000890B585B077
:1017000000AF78600122796837480AF057F803463D
:101710001A46364B1A70354B1B78002B07D0012325
:10172000334A6421002006F06DFF00F0C1FC002365
:10173000FB600023BB6026E02B4AC8212D480BF03C
:1017400059F8FB68C82202FB03F32B4A9C1829486E
:101750000BF00CFD0346194620460CF08EF8BB68D2
:101760000133BB60BB68C82202FB03F3224A9C180A
:1017700020480BF0FBFC0346194620460CF07DF890
:10178000FB680133FB60184B9A69174BDB689A4280
:10179000D2D115480AF0FBFD184ABB681360174BFD
:1017A0001B68C82202FB03F3134A13441846FEF7D2
:1017B0002FFD0446114B1B68013BC82202FB03F3BB
:1017C0000D4A13441846FEF723FD03469C4204D1FC
:1017D000BB68013B094A136002E0084ABB6813601A
:1017E00000BF1437BD4690BDE0030020A8010020D3
:1017F000A8F20008EC340020B4350020E4340020C6
:1018000084B080B586B002AF786007F11C0080E834
:101810000E000A227968234809F0D0FF03461A46D1
:10182000214B1A70204B1B78002B01D000F040FC9C
:101830001C4BDB6819461B480AF0D3FD03461A46C9
:10184000194B1A70184B1B78002B01D000F030FC9C
:101850000023FB6018E0FA69FB689B0013441968D9
:101860003A6AFB689B00134418687A6AFB689B001D
:1018700013441B68009303460A460C4909480BF0C1
:101880006DF8FB680133FB60BB6AFA689A42E2DDDF
:1018900004480AF07CFD00BF1037BD46BDE880401B
:1018A00004B07047E0030020A8010020C0F2000847
:1018B00090B589B002AF3648FFF720FF0BF0B2FCBD
:1018C000012140F2E7300BF0DFFD03467B60012190
:1018D00040F2E7300BF0D8FD0346BB60012140F237
:1018E000E7300BF0D1FD0346FB6000237B6129E06C
:1018F000284A7B6952F823107A687B699B00D418C8
:1019000008460BF0F5FC03462360234A7B6952F836
:101910002310BA687B699B00D41808460BF0E8FCDA
:10192000034623601D4A7B6952F82310FA687B69DD
:101930009B00D41808460BF0DBFC034623607B6950
:1019400001337B61164B1B687A699A42D0DD144BD8
:101950001B683B613B6900933B1D0ECB1148FFF7B1
:101960004FFF7B6818460BF0C9FD00237B60BB6806
:1019700018460BF0C3FD0023BB60FB6818460BF054
:10198000BDFD0023FB6000BF1C37BD4690BD00BFFE
:10199000CCF2000810060020AC15002048250020DD
:1019A000E4340020D8F2000890B589B002AF354881
:1019B000FFF7A4FE344B1B68194634480BF0A4FE15
:1019C0000BF030FC012142F20F700BF05DFD03467D
:1019D0007B60012142F20F700BF056FD0346BB60A5
:1019E000012142F20F700BF04FFD0346FB60002314
:1019F0007B6122E0264A7B6952F823107A687B6972
:101A00009B00D41808460BF073FC03462360BA68A9
:101A10007B699B0013441F4A1A601F4A7B6952F876
:101A20002310FA687B699B00D41808460BF060FC11
:101A3000034623607B6901337B61134B1B687A6922
:101A40009A42D7DD104B1B683B613B6900933B1DFD
:101A50000ECB1248FFF7D4FE7B6818460BF04EFD04
:101A600000237B60BB6818460BF048FD0023BB6079
:101A7000FB6818460BF042FD0023FB6000BF1C37DB
:101A8000BD4690BDCCF20008E4340020E8F2000826
:101A900010060020FCF200084825002000F3000892
:101AA00090B58BB002AF8C48FFF728FE8B4B1B68BC
:101AB00019468B480BF028FE0BF0B4FB012142F2D3
:101AC0000F700BF0E1FC03463B60012142F20F7006
:101AD0000BF0DAFC03467B60012142F20F700BF041
:101AE000D3FC0346BB600023FB610023BB610023E2
:101AF0007B619EE07B4A7B6952F8233018460BF0ED
:101B00008FFC0346002B0FD1FB690133FB61754A43
:101B10007B6952F823103A68FB699B00D418084689
:101B20000BF0E6FB034623606F4A7B6952F82330D3
:101B300018460BF075FC0346002B0FD1FB690133EF
:101B4000FB61694A7B6952F823103A68FB699B0084
:101B5000D41808460BF0CCFB03462360634A7B692C
:101B600052F8233018460BF05BFC0346002B0FD1D4
:101B7000FB690133FB615D4A7B6952F823103A68C7
:101B8000FB699B00D41808460BF0B2FB03462360A8
:101B9000544A7B6952F8233018460BF041FC034647
:101BA000012B0FD1BB690133BB614E4A7B6952F8EF
:101BB00023107A68BB699B00D41808460BF098FB89
:101BC00003462360484A7B6952F8233018460BF0DD
:101BD00027FC0346012B0FD1BB690133BB61424A8D
:101BE0007B6952F823107A68BB699B00D4180846B9
:101BF0000BF07EFB034623603C4A7B6952F823309E
:101C000018460BF00DFC0346012B0FD1BB690133C5
:101C1000BB61364A7B6952F823107A68BB699B0026
:101C2000D41808460BF064FB034623607B6901333C
:101C30007B612A4B1B687A699A427FF75BAFBA696E
:101C4000FB699342B8BF1346FB6000233B6122E06F
:101C50003A683B699B0013441B68002B05D13A6826
:101C60003B699B001344224A1A607A683B699B00D7
:101C700013441B68002B05D17A683B699B00134411
:101C80001B4A1A60BA683B699B001344184A1A60E1
:101C90003B6901333B61FB683A699A42D8DDFB68D6
:101CA00000933B460ECB1348FFF7AAFD3B6818464E
:101CB0000BF024FC00233B607B6818460BF01EFCF5
:101CC00000237B60BB6818460BF018FC0023BB6048
:101CD00000BF2437BD4690BDCCF20008E43400209C
:101CE000E8F2000810060020AC150020482500206E
:101CF00084F2000810F3000890B58BB002AF4F4893
:101D0000FFF7FCFC4E4B1B6819464E480BF0FCFCE1
:101D10000BF088FA012142F20F700BF0B5FB03467D
:101D20007B60012142F20F700BF0AEFB0346BB60FB
:101D3000012142F20F700BF0A7FB0346FB6000236A
:101D4000FB610023BB6132E0FB690133FB613E4A6A
:101D5000BB6952F823107A68FB699B00D4180846C7
:101D60000BF0C6FA03462360FB690133FB61374A77
:101D7000BB6952F823107A68FB699B00D4180846A7
:101D80000BF0B6FA03462360FB690133FB61304A6E
:101D9000BB6952F823107A68FB699B00D418084687
:101DA0000BF0A6FA03462360BB690133BB61244BE9
:101DB0001B68BA699A42C7DDFB693B6100237B61FE
:101DC0001BE07A687B699B0013441B68002B05D1DC
:101DD0007A687B699B0013441E4A1A60BA687B6963
:101DE0009B0013441B4A1A60FA687B699B001344EA
:101DF000184A1A607B6901337B613B697A699A42B0
:101E0000DFDD3B6900933B1D0ECB1348FFF7F8FC69
:101E10007B6818460BF072FB00237B60BB6818469A
:101E20000BF06CFB0023BB60FB6818460BF066FBF5
:101E30000023FB6000BF2437BD4690BDCCF20008F4
:101E4000E4340020E8F2000810060020AC15002061
:101E50004825002084F2000820F3000890B58BB0DC
:101E600002AF7548FFF74AFC744B1B68194674486B
:101E70000BF04AFC0BF0D6F9012142F20F700BF087
:101E800003FB03467B60012142F20F700BF0FCFA6A
:101E90000346BB60012142F20F700BF0F5FA0346D6
:101EA000FB600023FB610023BB6132E0FB6901336F
:101EB000FB61644ABB6952F823107A68FB699B0096
:101EC000D41808460BF014FA03462360FB6901336B
:101ED000FB615D4ABB6952F823107A68FB699B007D
:101EE000D41808460BF004FA03462360FB6901335B
:101EF000FB61564ABB6952F823107A68FB699B0064
:101F0000D41808460BF0F4F903462360BB6901338B
:101F1000BB614A4B1B68BA699A42C7DDFB693B61EA
:101F200000237B6167E07A687B699B0013441B6830
:101F3000002B05D17A687B699B001344444A1A60E0
:101F4000BA687B699B001344414A1A60FA687B694E
:101F50009B0013443E4A1A607A687B699B001344D5
:101F60001B6818460BF08CFA034618460BF058FA1B
:101F70000346012B11D17A687B699B0013441B68CF
:101F800018460BF07DFA0346052B06DD7A687B695F
:101F90009B0013442F4A1A602AE07A687B699B00F1
:101FA00013441B6818460BF06BFA034618460BF0F7
:101FB00037FA0346002B11D17A687B699B001344E2
:101FC0001B6818460BF05CFA0346052B06DD7A68A1
:101FD0007B699B001344204A1A6009E07A687B6998
:101FE0009B001A4479687B699B000B4412681A6055
:101FF0007B6901337B613B697A699A4293DD3B6976
:1020000000933B1D0ECB1548FFF7FAFB7B68184683
:102010000BF074FA00237B60BB6818460BF06EFA75
:102020000023BB60FB6818460BF068FA0023FB60D6
:1020300000BF2437BD4690BDCCF20008E434002038
:10204000E8F2000810060020AC150020482500200A
:1020500084F2000830F300083CF3000848F300085D
:1020600080B500AF104806F0CDFF4FF07F4006F07E
:1020700029FA01230D4A9621002006F0C3FA0A4BE3
:102080005B88B32B0ED9084B5B88B3F5967F09D8D4
:10209000054B9B898B2B05D9034B9B89AA2B01D818
:1020A000FEF70EFF00BF80BD2C42032058F300084E
:1020B00080B500AFFFF7D4FF642000F0D1FFF9E74F
:1020C00080B400AF72B600BFFEE7000080B584B0F8
:1020D00000AF78600023FB600023BB607B68002BAF
:1020E00001D10123C7E07B6893F8A130DBB2002B5C
:1020F00006D17B68002283F8A020786800F0C2F83F
:102100007B68022283F8A1207B681B689A697B6840
:102110001B6822F070429A617B681B6899697B6832
:102120005A687B689B681A437B68DB681A437B6844
:102130001B691A437B681B680A439A617B681B68AA
:1021400099687B681A684E4B0B4093607B685B69AB
:102150001B04FB607B681B6899687B689A69FB6855
:102160001A437B681B680A439A607B681B68D968BE
:102170007B681A68424B0B40D3607B68DB691B04A9
:10218000FB607B681B68D9687B681A6AFB681A4326
:102190007B681B680A43DA607B681B6819697B6887
:1021A0001A68374B0B4013617B685B6A1B04FB604A
:1021B0007B681B6819697B689A6AFB681A437B68AD
:1021C0001B680A431A617B681B6859697B681A6837
:1021D0002B4B0B4053617B68DB6A1B04FB607B6805
:1021E0001B6859697B681A6BFB681A437B681B681C
:1021F0000A435A617B6893F835301B02FB607B68A9
:1022000093F836301B04BB607B681B68DA6A7B6816
:102210001B6802F07F42DA627B681B68D96ABA6881
:10222000FB6813437A6892F834201A437B681B6872
:102230000A43DA627B681B685A6B7B681B6842F052
:1022400004025A637B681B685A6B7B681B6842F008
:1022500002025A637B681B689A697B681B6842F0BC
:1022600001029A617B680022C3F8A4207B680122E6
:1022700083F8A120002318461037BD4680BD00BF5B
:1022800000F800F080B483B000AF786000BF0C3776
:10229000BD465DF8047B704780B582B000AF7860C2
:1022A0007B681B689B6B03F00403002B25D07B68C5
:1022B0001B689B6B03F00403002B1ED07B681B681C
:1022C0005A6B7B681B6822F004025A637B681B68A8
:1022D0000422DA637B68D3F8A43043F001027B6800
:1022E000C3F8A4207B68042283F8A1207B68002225
:1022F00083F8A020786800F07BF87B681B689B6BF4
:1023000003F00203002B25D07B681B689B6B03F056
:102310000203002B1ED07B681B685A6B7B681B680E
:1023200022F002025A637B681B680222DA637B6830
:10233000D3F8A43043F002027B68C3F8A4207B6882
:10234000042283F8A1207B68002283F8A02078680B
:1023500000F04EF87B681B689B6B03F00103002BB9
:102360001DD07B681B689B6B03F00103002B16D00C
:102370007B681B685A6B7B681B6822F001025A63FA
:102380007B681B680122DA637B68012283F8A12045
:102390007B68002283F8A020786800F033F87B681F
:1023A0001B689B6B03F00803002B1DD07B681B6828
:1023B0009B6B03F00803002B16D07B681B685A6BDD
:1023C0007B681B6822F008025A637B681B6808223E
:1023D000DA637B68012283F8A1207B68002283F8FE
:1023E000A020786800F018F800BF0837BD4680BD0F
:1023F00080B483B000AF786000BF0C37BD465DF895
:10240000047B704780B483B000AF786000BF0C37A6
:10241000BD465DF8047B704780B483B000AF786040
:1024200000BF0C37BD465DF8047B7047B0B584B083
:1024300000AFF860B9607A60FB6893F8A030012BB8
:1024400001D102232CE0FB68012283F8A020FB6865
:10245000022283F8A120FA687B68342101FB03F390
:10246000134403F13802BB6814461D460FCD0FC458
:102470000FCD0FC40FCD0FC42B6823607A68B968E5
:10248000F86800F01FF8FB681B6801225A62FB68BD
:10249000012283F8A120FB68002283F8A0200023FA
:1024A00018461037BD46B0BD80B483B000AF786029
:1024B0007B6893F8A130DBB218460C37BD465DF857
:1024C000047B704780B489B000AFF860B9607A606F
:1024D0000023FB610023BB6100237B61BB685A685A
:1024E000FB681B68DB681B0CC3F30B0313441B0462
:1024F000FB61FB681B681A467B68DB01134484336D
:102500005B68FA68126811467A68D2010A4484321C
:1025100003F470435360BB681A68FB681B68DB6890
:102520001B0CC3F30B0313445A1CFB681B681946AE
:102530007B68DB010B4484331946FB6913434B6012
:10254000BB68DA68FB681B68DB68C3F30A031344E3
:102550001B04FB61FB681B681A467B68DB011344A4
:1025600084339B68FA68126811467A68D2010A447B
:10257000843203F470439360BB689A68FB681B68FD
:10258000DB68C3F30A0313445A1CFB681B68194633
:102590007B68DB010B4484331946FB6913438B6072
:1025A000FB681B681A467B68DB01134484331B6994
:1025B000FA68126811467A68D2010A44843223F01C
:1025C00007031361FB681B681A467B68DB01134431
:1025D00084331A46BB681B691361BB6893F83130BA
:1025E0001B02FB61BB6893F832301B04BB61BB6804
:1025F0009B691B067B61FB681B681A467B68DB01D5
:10260000134484339B69FB681B681A467B68DB01B3
:10261000134484331A4600239361BB6893F8303027
:102620001A46FB691A43BB691A43FB681B681946C3
:102630007B68DB010B44843319467B6913438B6150
:10264000FB681B681A467B68DB01134484335B69B3
:10265000FA68126811467A68D2010A44843223F07B
:10266000FF035361FB681B681A467B68DB01134458
:1026700084331A46BB685B695361FB681B681A4662
:102680007B68DB0113448433DA69FB681B681946F5
:102690007B68DB010B4484331946584B1340CB61F4
:1026A000BB68DA69BB681B6AF9680968084679681B
:1026B000C901014484311343CB61FB681B681A468E
:1026C0007B68DB01134484339B6AFB681B681A46F2
:1026D0007B68DB01134484331A4600239362FB6852
:1026E0001B681A467B68DB01134484331A46BB68B7
:1026F0005B6A9362BB681B69002B02D10423FB61F8
:102700001BE0BB681B69012B02D10323FB6114E0B2
:10271000BB681B69042B0BD0BB681B69022B07D05D
:10272000BB681B69032B03D0BB681B69072B02D155
:102730000223FB6101E00123FB61FB681B681A4671
:102740007B68DB0113448433DB6AFA681268114644
:102750007A68D2010A44843203F0E023D362BB6872
:102760009B6AFA6902FB03F31A04BB685968BB68E9
:102770001B68CB1AF96901FB03F30333F968096895
:1027800008467968C901014484311343CB62FB6870
:102790001B681A467B68DB01134484331A6BFB68A1
:1027A0001B6819467B68DB010B4484331946144BC4
:1027B00013400B63FB681B681A467B68DB011344FC
:1027C00084331A46BB68DB6A1363FB681B681A46CE
:1027D0007B68DB01134484331B68FA681268114676
:1027E0007A68D2010A44843243F00103136000BFC7
:1027F0002437BD465DF8047B704700BFF8F8FFFF43
:1028000000F8FFFF80B582B000AF164B1B6C154A75
:1028100043F080531364134B1B6C03F080537B60B5
:102820007B68104B5B6C0F4A43F4804353640D4B41
:102830005B6C03F480433B603B6800220021052071
:1028400000F00DFD052000F026FD002200210520EE
:1028500000F005FD052000F01EFD00BF0837BD4655
:1028600080BD00BF0038024080B485B000AF786002
:102870007B681B680A4A93420BD10A4B1B6B094ABF
:1028800043F480531363074B1B6B03F48053FB60CB
:10289000FB6800BF1437BD465DF8047B704700BF7E
:1028A000003002400038024080B485B000AF78604C
:1028B0007B681B680A4A93420BD10A4B1B6B094A7F
:1028C00043F400031363074B1B6B03F40003FB602B
:1028D000FB6800BF1437BD465DF8047B704700BF3E
:1028E00000B002400038024080B5ACB000AF786064
:1028F00007F19C0300221A605A609A60DA601A613C
:1029000007F118038422002118460AF0FFFD7B68B6
:102910001B68344A934261D14FF42003BB6100230A
:10292000C7F894300023C7F8983007F11803184609
:1029300002F032FE0346002B01D0FFF7C1FB2A4B09
:102940005B6C294A43F400635364274B5B6C03F4CC
:1029500000637B617B69244B1B6B234A43F00403B8
:102960001363214B1B6B03F004033B613B691E4B5C
:102970001B6B1D4A43F0080313631B4B1B6B03F0D7
:102980000803FB60FB684FF48853C7F89C300223B0
:10299000C7F8A0300023C7F8A4300323C7F8A83035
:1029A0000C23C7F8AC3007F19C0319460F4801F01F
:1029B000C1F90423C7F89C300223C7F8A0300023D4
:1029C000C7F8A4300323C7F8A8300C23C7F8AC30ED
:1029D00007F19C031946064801F0ACF900BFB03777
:1029E000BD4680BD002C0140003802400008024076
:1029F000000C024080B582B000AF786039607B681F
:102A0000002B01D1012325E07B6893F82C30DBB249
:102A1000002B06D17B68002283F82D20786800F017
:102A20001DF87B68022283F82C207B681A687B687B
:102A300004331946104600F0A1F87B6818687B68DB
:102A40005B681A46396800F00BF97B68012283F84D
:102A50002C20002318460837BD4680BD80B483B0C3
:102A600000AF786000BF0C37BD465DF8047B70474F
:102A700080B584B000AFF860B9607A60FB6893F805
:102A80002C30DBB2022B01D1022318E0FB680222BA
:102A900083F82C20FB681B687A68B968184600F038
:102AA0005FF9BB681B68022B04D1FB68052283F821
:102AB0002C2003E0FB68012283F82C200023184619
:102AC0001037BD4680BD80B582B000AF78603960F8
:102AD0007B6893F82C30DBB2022B01D102230EE08D
:102AE0007B68022283F82C207B681B6839681846B3
:102AF00000F057F97B68012283F82C200023184648
:102B00000837BD4680BD80B400AFFEE780B400AF9B
:102B1000FEE780B400AFFEE780B400AFFEE780B40C
:102B200000AFFEE780B400AF00BFBD465DF8047B98
:102B3000704780B400AF00BFBD465DF8047B7047AE
:102B400080B400AF00BFBD465DF8047B704780B520
:102B500000AF00F065FA00BF80BD80B400AF00BFD9
:102B6000BD465DF8047B704780B500AF0248FFF7B3
:102B700093FB00BF80BD00BFBC42032080B485B082
:102B800000AF786039600023FB600023BB603B68C6
:102B90001B68012B27D07B681B68FB60FA682F4BF2
:102BA0001340FB603B685A683B689B681A433B686C
:102BB000DB681A433B681B691A433B685B691A432D
:102BC0003B689B691A433B68DB691A433B681B6A95
:102BD0001A433B685B6A1343FA681343FB607B68E4
:102BE000FA681A6032E07B681B68FB60FB6823F4BC
:102BF000F843FB603B68DA693B681B6A1A433B6831
:102C00005B6A1343FA681343FB607B685B68BB60D5
:102C1000BA68124B1340BB603B685A683B689B68BC
:102C20001A433B68DB681A433B681B691A433B68DD
:102C30005B691A433B689B691343BA681343BB60E3
:102C40007B68FA681A607B68BA685A600023184685
:102C50001437BD465DF8047B704700BF0080FFFF5E
:102C600080B487B000AFF860B9607A6000237B6100
:102C700000233B617B68012B2ED0FB689B687B6146
:102C80007B6903F070437B61BB681B685A1EBB689D
:102C90005B68013B1B011A43BB689B68013B1B023D
:102CA0001A43BB68DB68013B1B031A43BB681B6903
:102CB000013B1B041A43BB685B69013B1B051A43BC
:102CC000BB689B69013B1B0613437A6913437B6115
:102CD000FB687A699A6039E0FB689B687B617A6976
:102CE0001E4B13407B61BB68DB68013B1A03BB686A
:102CF0005B69013B1B0513437A6913437B61FB68E6
:102D0000DB683B613B6903F070433B61BB681B6858
:102D10005A1EBB685B68013B1B011A43BB689B687A
:102D2000013B1B021A43BB681B69013B1B041A438E
:102D3000BB689B69013B1B0613433A6913433B6124
:102D4000FB687A699A60FB683A69DA600023184682
:102D50001C37BD465DF8047B704700BFFF0F0FFFB7
:102D600080B487B000AFF860B9607A6000237B61FF
:102D7000BB681A68BB685B681A43BB689B68013B09
:102D80005B011A43BB68DB685B0213437B617A69B2
:102D9000FB681A61002318461C37BD465DF8047BAA
:102DA000704780B483B000AF786039607B685A693F
:102DB0003B685B001A437B685A61002318460C3756
:102DC000BD465DF8047B704780B586B000AFF86003
:102DD000B9607A6000237B610AE0AFF300800146AE
:102DE000BB685A1CBA60CAB21A707B6901337B6136
:102DF0007A697B689A42F0DB7B6818461837BD46D3
:102E000080BD80B586B000AFF860B9607A600023FD
:102E10007B6109E0BB685A1CBA601B781846AFF3A7
:102E200000807B6901337B617A697B689A42F1DBC0
:102E30007B6818461837BD4680BD80B483B000AFAC
:102E400078604FF0FF3318460C37BD465DF8047BC1
:102E5000704780B483B000AF786039603B684FF44E
:102E600000525A60002318460C37BD465DF8047BBB
:102E7000704780B483B000AF7860012318460C37E8
:102E8000BD465DF8047B704780B485B000AFF86044
:102E9000B9607A60002318461437BD465DF8047B9C
:102EA0007047000080B586B000AF7860144A154BBB
:102EB000D31A7B617B693B61134B1B68002B02D1EA
:102EC000114B124A1A60104B1A687B6813443A6916
:102ED0009A4207D20AF0E0FA03460C221A604FF039
:102EE000FF3309E0084B1B68FB60074B1A687B68DF
:102EF0001344054A1360FB6818461837BD4680BD69
:102F000000000520000800005842032080450320EF
:102F100080B400AF064BD3F88830054A43F4700301
:102F2000C2F8883000BFBD465DF8047B704700BF23
:102F300000ED00E0DFF834D00D480E490E4A0023C2
:102F400002E0D458C4500433C4188C42F9D30B4A5D
:102F50000B4C002301E013600432A242FBD3FFF7C5
:102F6000D7FF0AF09FFAFEF72BF870470000052004
:102F700000000020A4000020B8140108A4000020D4
:102F80007C450320FEE7000080B500AF0B4B1B68BB
:102F90000A4A43F400731360084B1B68074A43F462
:102FA00080731360032000F04FF9002000F008F850
:102FB000FFF728FC0023184680BD00BF003C0240FC
:102FC00080B582B000AF7860124B1A68124B1B7844
:102FD00019464FF47A73B3FBF1F3B2FBF3F31846DF
:102FE00000F067F90346002B01D001230EE07B6857
:102FF0000F2B0AD8002279684FF0FF3000F02FF92C
:10300000064A7B681360002300E001231846083756
:10301000BD4680BD00000020080000200400002004
:1030200080B400AF064B1B781A46064B1B6813444E
:10303000044A136000BFBD465DF8047B704700BFC3
:10304000080000205C42032080B400AF034B1B68E3
:103050001846BD465DF8047B704700BF5C42032004
:1030600080B584B000AF7860FFF7EEFFB8607B6892
:10307000FB60FB68B3F1FF3F05D00A4B1B781A4693
:10308000FB681344FB6000BFFFF7DEFF0246BB682E
:10309000D31AFA689A42F7D800BF00BF1037BD466E
:1030A00080BD00BF0800002080B485B000AF78600C
:1030B0007B6803F00703FB600B4BDB68BB60BA68FF
:1030C0004FF6FF031340BB60FB681A02BB681A434C
:1030D000064B1343BB60044ABB68D36000BF143780
:1030E000BD465DF8047B704700ED00E00000FA0586
:1030F00080B400AF044BDB681B0A03F007031846DB
:10310000BD465DF8047B704700ED00E080B483B0FD
:1031100000AF0346FB7197F90730002B0BDBFB79FF
:1031200003F01F02074997F907305B09012000FAF5
:1031300002F241F8232000BF0C37BD465DF8047B46
:10314000704700BF00E100E080B483B000AF0346E9
:103150003960FB7197F90730002B0ADB3B68DAB264
:103160000C4997F907301201D2B20B4483F80023BF
:103170000AE03B68DAB20849FB7903F00F03043B2D
:103180001201D2B20B441A7600BF0C37BD465DF86F
:10319000047B704700E100E000ED00E080B489B0FE
:1031A00000AFF860B9607A60FB6803F00703FB6169
:1031B000FB69C3F10703042B28BF0423BB61FB6930
:1031C0000433062B02D9FB69033B00E000237B613B
:1031D0004FF0FF32BB6902FA03F3DA43BB681A40CF
:1031E0007B699A404FF0FF317B6901FA03F3D943C1
:1031F0007B680B40134318462437BD465DF8047BBB
:103200007047000080B582B000AF78607B68013BFA
:10321000B3F1807F01D301230FE00A4A7B68013BB1
:1032200053600F214FF0FF30FFF78EFF054B002258
:103230009A60044B07221A60002318460837BD46DF
:1032400080BD00BF10E000E080B582B000AF7860C4
:103250007868FFF729FF00BF0837BD4680BD80B5FD
:1032600086B000AF0346B9607A60FB7300237B61D0
:10327000FFF73EFF78617A68B9687869FFF78EFFDB
:10328000024697F90F3011461846FFF75DFF00BF61
:103290001837BD4680BD80B582B000AF0346FB71D4
:1032A00097F907301846FFF731FF00BF0837BD46D2
:1032B00080BD80B582B000AF78607868FFF7A2FF6C
:1032C000034618460837BD4680BD000080B582B071
:1032D00000AF78607B68002B01D1012354E07B684C
:1032E0005B7FDBB2002B05D17B6800221A77786800
:1032F000FFF7BAFA7B6802225A777B681B79002BAA
:103300000CD17B681B68224A5A617B681B689A68EB
:103310007B681B6822F018029A600CE07B68996851
:103320007B68DB681A46786800F034F80346002BA7
:1033300001D0012328E07B685B79002B05D17B68F5
:103340001B684FF0FF321A6104E07B681B687A68E3
:1033500012691A617B681B689B6823F060017B68B7
:103360005A697B681B680A439A607B681B689B6884
:1033700023F080017B689A697B681B680A439A6026
:103380007B6801225A77002318460837BD4680BD66
:10339000B71DC10480B487B000AFF860B9607A602F
:1033A0000023FB751F233B6100BF3B695A1E3A6136
:1033B000002B09D03B6903F01F03BA6822FA03F31C
:1033C00003F00103002BF0D07B68182B46D801A234
:1033D00052F823F0633400085D3400085D340008BF
:1033E0005D3400085D3400085D3400085D34000879
:1033F0005D340008513400085D3400085D34000875
:103400005D3400085D3400085D3400085D34000858
:103410005D340008453400085D3400085D34000860
:103420005D3400085D3400085D3400085D34000838
:103430005D340008393400083B69062B13D9012399
:10344000FB7510E03B69072B0FD90123FB750CE0DE
:103450003B690F2B0BD90123FB7508E00123FB759A
:1034600006E000BF04E000BF02E000BF00E000BFD4
:10347000FB7D002B0DD1FB681B68BA685A61FB68A5
:103480001B689B6823F01801FB681B687A680A4375
:103490009A60FB7D18461C37BD465DF8047B70477B
:1034A00080B586B000AF786000237B61FFF7CCFD6C
:1034B00038617B68002B01D1012399E07B680222EF
:1034C00083F835207B68002283F834207B681B68F2
:1034D0001A687B681B6822F001021A600FE0FFF790
:1034E000B3FD02463B69D31A052B08D97B6820221D
:1034F0005A657B68032283F83520032378E07B68D4
:103500001B681B6803F00103002BE8D17B681B6874
:103510001B687B617A69384B13407B617B685A6812
:103520007B689B681A437B68DB681A437B681B696E
:103530001A437B685B691A437B689B691A437B6803
:10354000DB691A437B681B6A13437A6913437B6107
:103550007B685B6A042B07D17B68DA6A7B681B6B2C
:1035600013437A6913437B617B681B687A691A602D
:103570007B681B685B697B617B6923F007037B6168
:103580007B685B6A7A6913437B617B685B6A042BA7
:1035900017D17B689B6A7A6913437B617B68DB6A1E
:1035A000002B0ED0786800F0BDF80346002B08D041
:1035B0007B6840225A657B68012283F8352001230D
:1035C00016E07B681B687A695A61786800F074F8C5
:1035D0000346FB607B68DB6D3F229A40FB689A6084
:1035E0007B6800225A657B68012283F8352000231E
:1035F00018461837BD4680BD3F8010F080B584B0B6
:1036000000AF78607B68002B01D1012350E07B681C
:1036100093F83530DBB2022B01D1022348E07B68FE
:103620001B681A687B681B6822F001021A607B68BD
:103630001B6800221A607B681B6800225A607B6846
:103640001B6800229A607B681B680022DA607B6836
:103650001B6800221A617B681B6821225A61786806
:1036600000F02AF80346FB607B68DB6D3F229A403E
:10367000FB689A607B680022DA637B6800221A6428
:103680007B6800225A647B6800229A647B6800226F
:10369000DA647B6800221A657B6800225A657B68C1
:1036A000002283F835207B68002283F83420002331
:1036B00018461037BD4680BD80B485B000AF786035
:1036C0007B681B68DBB2103B134AA2FB03231B0978
:1036D000FB60124AFB6813441B781A467B68DA6564
:1036E000FB68032B08D97B681B681A460C4B1340F8
:1036F0001A1D7B689A6506E07B681B681A46084BB2
:1037000013407A6893657B689B6D18461437BD46F5
:103710005DF8047B704700BFABAAAAAADCF30008DF
:1037200000FCFFFF80B485B000AF78600023FB731E
:103730007B689B6ABB607B689B69002B1FD1BB6861
:10374000032B56D801A252F823F000BF5D370008C2
:103750006F3700085D370008F33700087B68DB6AC5
:1037600003F08073002B46D00123FB7343E07B689A
:10377000DB6AB3F1C07F40D10123FB733DE07B687E
:103780009B69B3F5005F21D1BB68032B37D801A239
:1037900052F823F0A5370008AB370008A53700081A
:1037A000BD3700080123FB7330E07B68DB6A03F060
:1037B0008073002B25D00123FB7322E07B68DB6A3A
:1037C000B3F1C07F1FD10123FB731CE0BB68022B48
:1037D00003D9BB68032B03D018E00123FB7315E06A
:1037E0007B68DB6A03F08073002B0ED00123FB7330
:1037F0000BE000BF0AE000BF08E000BF06E000BF2A
:1038000004E000BF02E000BF00E000BFFB7B184601
:103810001437BD465DF8047B704700BF80B582B0A9
:1038200000AF78607B68002B01D1012339E07B6811
:1038300093F83930DBB2002B06D17B68002283F885
:1038400038207868FFF730F87B68022283F8392047
:103850007B681B681B6823F440317B685A687B686F
:103860001B680A431A607B681B685B6B23F00701C7
:103870007B689A687B681B680A435A637B681B688D
:103880001A6C0A4B13407A68D1687A6812680B4345
:1038900013647B680022DA637B68012283F8392095
:1038A000002318460837BD4680BD00BF00C0FFFF9B
:1038B00080B586B002AFF860B9607A603B60FB68A3
:1038C00093F83830012B01D1022318E0FB68012264
:1038D00083F83820FB68022283F83920BB69009303
:1038E0003B687A68B968F86800F088F9FB681B687B
:1038F0001A68FB681B6842F001021A600023184630
:103900001037BD4680BD80B586B000AF78603960A5
:103910000023FB607B681B681B6803F00103002B1E
:1039200056D0FFF791FB78614BE07B681B685B68C2
:10393000FB60FB6803F02103002B23D0FB6803F03E
:103940002003002B05D07B68DB6B43F002027B6811
:10395000DA63FB6803F00103002B05D07B68DB6BA7
:1039600043F001027B68DA637B681B6821229A605E
:103970007B68042283F839207B68002283F8382092
:103980000123A5E03B68B3F1FF3F1AD0FFF75CFBD2
:1039900002467B69D31A3A689A4202D33B68002BED
:1039A0000FD17B68DB6B43F020027B68DA637B68B6
:1039B000032283F839207B68002283F83820032310
:1039C00086E07B681B685B6803F00203002BACD0C9
:1039D0007B681B68DB6903F020033B617B681B6825
:1039E0005B6A03F020033A6913433B613B69002B98
:1039F00061D0FFF729FB786156E07B681B685B6844
:103A0000FB60FB6803F02903002B2ED0FB6803F05A
:103A10000803002B05D07B68DB6B43F004027B6856
:103A2000DA63FB6803F02003002B05D07B68DB6BB7
:103A300043F002027B68DA63FB6803F00103002BAA
:103A400005D07B68DB6B43F001027B68DA637B683F
:103A50001B6829229A607B68042283F839207B68DE
:103A6000002283F83820012332E03B68B3F1FF3FA6
:103A70001AD0FFF7E9FA02467B69D31A3A689A42EC
:103A800002D33B68002B0FD17B68DB6B43F0200235
:103A90007B68DA637B68032283F839207B68002225
:103AA00083F83820032313E07B681B685B6803F00E
:103AB0001003002BA1D07B681B6812229A607B68E0
:103AC000012283F839207B68002283F83820002304
:103AD00018461837BD4680BD80B487B000AF786007
:103AE00039607B685B68B3F5403F7B6893F838309A
:103AF000012B01D1022379E07B68012283F8382071
:103B00007B68022283F839203B681B0118337A68EE
:103B100013443B613B695A683B699B681B04134330
:103B20007B61354BFB603B695B680A2B03D03B69CB
:103B30005B68092B07D13B69DB6803F07F437A6937
:103B400013437B6105E03B69DB681B067A6913431D
:103B50007B613B68002B20D17B681B685A6AFB683D
:103B6000DB4302EA03017B681B687A690A435A62F5
:103B70007B681B683A6912689A613B695B680A2B2B
:103B800003D03B695B68092B27D13B69DA687B6806
:103B90001B6822F07F429A621FE07B681B68DA692B
:103BA000FB68DB4302EA03017B681B687A690A430E
:103BB000DA617B681B683A6912681A613B695B6865
:103BC0000A2B03D03B695B68092B06D13B69DA6895
:103BD0007B681B6822F07F421A627B68012283F8AF
:103BE00039207B68002283F83820002318461C37D0
:103BF000BD465DF8047B70470F0003FF80B48BB0B7
:103C000000AFF860B9607A603B60FB681B685B6C72
:103C100003F040413B681A043B6B1A43FB681B6886
:103C20000A435A64FB681B687A68DA63FB685B685E
:103C3000B3F5403F74D1BB6803F07F433B62BB6880
:103C400003F47F03FB61BB6803F47F43BB61BB6884
:103C5000DBB27B61FB689B68002B08D1BA69FB690A
:103C60001A433B6A13437A6913437B6253E0FB6850
:103C70009B68012B06D1BA69FB6913437A69134328
:103C80007B6248E0FB689B68022B11D1FB69DB0C6F
:103C9000FB61BB699B0ABB617B69DB087B61BB691C
:103CA0005A01FB69DB0213437A6913437B6232E0FA
:103CB000FB689B68032B17D13B6ADB0F3B62FB69F8
:103CC000DB0CFB61BB69DB0ABB617B69DB087B61E9
:103CD000BB695A01FB699B021A433B6ADB0313432E
:103CE0007A6913437B6216E03B6A1B0F3B62FB69F8
:103CF0001B0DFB61BB691B0BBB617B691B097B61F6
:103D0000BB691A01FB691B021A433B6A1B0313437D
:103D10007A6913437B62FB681B687A6A9A6303E0E3
:103D2000FB681B68BA68DA6000BF2C37BD465DF8D7
:103D3000047B704780B489B000AF7860396000239D
:103D4000FB6100237B6100233B610023BB610023F7
:103D5000FB6175E10122FB6902FA03F37B613B68B9
:103D60001B687A6913403B613A697B699A4240F06B
:103D700064813B685B6803F00303012B05D03B685B
:103D80005B6803F00303022B30D17B689B68BB6147
:103D9000FB695B00032202FA03F3DB43BA691340B9
:103DA000BB613B68DA68FB695B0002FA03F3BA693E
:103DB0001343BB617B68BA699A607B685B68BB61CF
:103DC0000122FB6902FA03F3DB43BA691340BB61CA
:103DD0003B685B681B0903F00102FB6902FA03F30D
:103DE000BA691343BB617B68BA695A603B685B6818
:103DF00003F00303032B17D07B68DB68BB61FB690F
:103E00005B00032202FA03F3DB43BA691340BB6190
:103E10003B689A68FB695B0002FA03F3BA691343D3
:103E2000BB617B68BA69DA603B685B6803F00303D7
:103E3000022B23D1FB69DA087B68083253F8223061
:103E4000BB61FB6903F007039B000F2202FA03F337
:103E5000DB43BA691340BB613B681A69FB6903F035
:103E600007039B0002FA03F3BA691343BB61FB69C2
:103E7000DA087B680832B96943F822107B681B684E
:103E8000BB61FB695B00032202FA03F3DB43BA69FF
:103E90001340BB613B685B6803F00302FB695B0096
:103EA00002FA03F3BA691343BB617B68BA691A600B
:103EB0003B685B6803F44033002B00F0BE80664B28
:103EC0005B6C654A43F480435364634B5B6C03F45F
:103ED0008043FB60FB68614AFB699B08023352F830
:103EE0002330BB61FB6903F003039B000F2202FA3E
:103EF00003F3DB43BA691340BB617B68584A9342C2
:103F000037D07B68574A934231D07B68564A9342F8
:103F10002BD07B68554A934225D07B68544A934204
:103F20001FD07B68534A934219D07B68524A934210
:103F300013D07B68514A93420DD07B68504A93421C
:103F400007D07B684F4A934201D1092312E00A232C
:103F500010E008230EE007230CE006230AE0052307
:103F600008E0042306E0032304E0022302E0012327
:103F700000E00023FA6902F0030292009340BA695C
:103F80001343BB613549FB699B080233BA6941F8A9
:103F900023203D4B9B68BB613B69DB43BA691340FF
:103FA000BB613B685B6803F48013002B03D0BA69E4
:103FB0003B691343BB61344ABB699360324BDB6896
:103FC000BB613B69DB43BA691340BB613B685B681B
:103FD00003F40013002B03D0BA693B691343BB61A0
:103FE000294ABB69D360284B5B68BB613B69DB43F3
:103FF000BA691340BB613B685B6803F40033002B74
:1040000003D0BA693B691343BB611F4ABB69536064
:104010001D4B1B68BB613B69DB43BA691340BB6145
:104020003B685B6803F48033002B03D0BA693B69BB
:104030001343BB61144ABB691360FB690133FB6125
:10404000FB690F2B7FF686AE00BF00BF2437BD464D
:104050005DF8047B704700BF003802400038014023
:10406000000002400004024000080240000C024030
:10407000001002400014024000180240001C0240E0
:104080000020024000240240003C014080B483B084
:1040900000AF78600B467B8013467B707B78002BEB
:1040A00003D07A887B689A6103E07B881A047B6876
:1040B0009A6100BF0C37BD465DF8047B7047000075
:1040C00080B582B000AF78607B68002B01D10123FE
:1040D0007FE07B6893F84130DBB2002B06D17B6830
:1040E000002283F84020786800F0A9F87B68242239
:1040F00083F841207B681B681A687B681B6822F084
:1041000001021A607B685A687B681B6822F0706243
:104110001A617B681B689A687B681B6822F40042FE
:104120009A607B68DB68012B07D17B689A687B68A3
:104130001B6842F400429A6006E07B689A687B68DC
:104140001B6842F404429A607B68DB68022B04D14E
:104150007B681B684FF400625A607B681B68596873
:104160007B681A681D4B0B4353607B681B68DA68D9
:104170007B681B6822F40042DA607B681A697B68FE
:104180005B6942EA03017B689B691A027B681B68D2
:104190000A43DA607B68D9697B681A6A7B681B68A6
:1041A0000A431A607B681B681A687B681B6842F0C8
:1041B00001021A607B6800225A647B68202283F81F
:1041C00041207B6800221A637B68002283F842202A
:1041D000002318460837BD4680BD00BF008000029E
:1041E00080B582B000AF78607B68002B01D10123DD
:1041F00021E07B68242283F841207B681B681A68D1
:104200007B681B6822F001021A60786800F021F8D0
:104210007B6800225A647B68002283F841207B6817
:1042200000221A637B68002283F842207B68002208
:1042300083F84020002318460837BD4680BD80B46F
:1042400083B000AF786000BF0C37BD465DF8047BDB
:10425000704780B483B000AF786000BF0C37BD46B4
:104260005DF8047B7047000080B588B002AFF8604D
:10427000084611461A4603467B810B463B8113468E
:10428000FB80FB6893F84130DBB2202B40F0F980D3
:104290003B6A002B02D0BB8C002B05D1FB684FF48E
:1042A00000725A640123EDE0FB6893F84030012B63
:1042B00001D10223E6E0FB68012283F84020FEF7EB
:1042C000C3FE78617B690093192301224FF40041FA
:1042D000F86800F0D1FA0346002B01D00123D1E0A9
:1042E000FB68212283F84120FB68402283F84220AA
:1042F000FB6800225A64FB683A6A5A62FB68BA8C0F
:104300005A85FB6800225A63F8883A8979897B6963
:104310000193BB6A00930346F86800F0E1F9034695
:10432000002B05D0FB68002283F840200123A9E080
:10433000FB685B8D9BB2FF2B0ED9FB68FF221A85B1
:10434000FB681B8DDAB27989002300934FF08073EC
:10435000F86800F039FC0FE0FB685B8D9AB2FB68EF
:104360001A85FB681B8DDAB27989002300934FF020
:104370000073F86800F028FC7A69B96AF86800F000
:10438000BBFA0346002B01D001237BE0FB685B6A8C
:104390001A78FB681B689A62FB685B6A5A1CFB68A8
:1043A0005A62FB685B8D9BB2013B9AB2FB685A85EF
:1043B000FB681B8D013B9AB2FB681A85FB685B8D1D
:1043C0009BB2002B34D0FB681B8D002B30D17B6956
:1043D0000093BB6A00228021F86800F04DFA034682
:1043E000002B01D001234DE0FB685B8D9BB2FF2BBE
:1043F0000ED9FB68FF221A85FB681B8DDAB279891A
:10440000002300934FF08073F86800F0DDFB0FE0AD
:10441000FB685B8D9AB2FB681A85FB681B8DDAB26C
:104420007989002300934FF00073F86800F0CCFB0B
:10443000FB685B8D9BB2002B9ED17A69B96AF868E4
:1044400000F09AFA0346002B01D001231AE0FB6822
:104450001B682022DA61FB681B685968FB681A68D0
:104460000A4B0B405360FB68202283F84120FB6815
:10447000002283F84220FB68002283F840200023BA
:1044800000E0022318461837BD4680BD00E800FE54
:1044900080B588B002AFF860084611461A46034658
:1044A0007B810B463B811346FB80FB6893F84130D0
:1044B000DBB2202B40F0FD803B6A002B02D0BB8C8E
:1044C000002B05D1FB684FF400725A640123F1E020
:1044D000FB6893F84030012B01D10223EAE0FB682E
:1044E000012283F84020FEF7AFFD78617B690093DD
:1044F000192301224FF40041F86800F0BDF903468A
:10450000002B01D00123D5E0FB68222283F8412053
:10451000FB68402283F84220FB6800225A64FB6853
:104520003A6A5A62FB68BA8C5A85FB6800225A6361
:10453000F8883A8979897B690193BB6A00930346BD
:10454000F86800F021F90346002B05D0FB68002233
:1045500083F840200123ADE0FB685B8D9BB2FF2B0D
:104560000ED9FB68FF221A85FB681B8DDAB27989A8
:10457000524B00934FF08073F86800F025FB0FE07A
:10458000FB685B8D9AB2FB681A85FB681B8DDAB2FB
:1045900079894A4B00934FF00073F86800F014FBE0
:1045A0007B690093BB6A00220421F86800F064F97B
:1045B0000346002B01D001237CE0FB681B685A6A8C
:1045C000FB685B6AD2B21A70FB685B6A5A1CFB68B4
:1045D0005A62FB681B8D013B9AB2FB681A85FB6827
:1045E0005B8D9BB2013B9AB2FB685A85FB685B8D81
:1045F0009BB2002B34D0FB681B8D002B30D17B6924
:104600000093BB6A00228021F86800F035F9034668
:10461000002B01D001234DE0FB685B8D9BB2FF2B8B
:104620000ED9FB68FF221A85FB681B8DDAB27989E7
:10463000002300934FF08073F86800F0C5FA0FE094
:10464000FB685B8D9AB2FB681A85FB681B8DDAB23A
:104650007989002300934FF00073F86800F0B4FAF2
:10466000FB685B8D9BB2002B9AD17A69B96AF868B6
:1046700000F082F90346002B01D001231AE0FB6809
:104680001B682022DA61FB681B685968FB681A689E
:104690000B4B0B405360FB68202283F84120FB68E2
:1046A000002283F84220FB68002283F84020002388
:1046B00000E0022318461837BD4680BD0024008064
:1046C00000E800FE80B483B000AF78607B6893F8A8
:1046D0004130DBB218460C37BD465DF8047B7047AD
:1046E00080B586B002AFF860084611461A46034608
:1046F0007B810B463B811346FB80FB88DAB27989CC
:10470000204B00934FF08073F86800F05DFAFA696F
:10471000B969F86800F0F0F80346002B01D00123D6
:104720002CE0FB88012B05D13B89DAB2FB681B68C2
:104730009A6215E03B891B0A9BB2DAB2FB681B68E0
:104740009A62FA69B969F86800F0D6F80346002B56
:1047500001D0012312E03B89DAB2FB681B689A6240
:10476000FB690093BB6900228021F86800F084F89F
:104770000346002B01D0012300E000231846103728
:10478000BD4680BD0020008080B586B002AFF860D5
:10479000084611461A4603467B810B463B81134669
:1047A000FB80FB88DAB27989204B00930023F868FC
:1047B00000F00AFAFA69B969F86800F09DF8034652
:1047C000002B01D001232CE0FB88012B05D13B8974
:1047D000DAB2FB681B689A6215E03B891B0A9BB240
:1047E000DAB2FB681B689A62FA69B969F86800F086
:1047F00083F80346002B01D0012312E03B89DAB293
:10480000FB681B689A62FB690093BB690022402128
:10481000F86800F031F80346002B01D0012300E0D6
:10482000002318461037BD4680BD00BF0020008021
:1048300080B483B000AF78607B681B689B6903F02D
:104840000203022B03D17B681B6800229A627B68FB
:104850001B689B6903F00103012B07D07B681B6871
:104860009A697B681B6842F001029A6100BF0C37AD
:10487000BD465DF8047B704780B584B000AFF8603A
:10488000B9603B601346FB7122E03B68B3F1FF3F28
:104890001ED0FEF7D9FB0246BB69D31A3A689A428A
:1048A00002D33B68002B13D1FB685B6C43F0200202
:1048B000FB685A64FB68202283F84120FB680022D1
:1048C00083F84220FB68002283F8402001230FE098
:1048D000FB681B689A69BB681340BA689A420CBFB0
:1048E00001230023DBB21A46FB799A42CDD0002384
:1048F00018461037BD4680BD80B584B000AFF86063
:10490000B9607A602CE07A68B968F86800F070F8ED
:104910000346002B01D001232AE0BB68B3F1FF3F1F
:104920001ED0FEF791FB02467B68D31ABA689A4202
:1049300002D3BB68002B13D1FB685B6C43F02002F1
:10494000FB685A64FB68202283F84120FB68002240
:1049500083F84220FB68002283F84020012307E00F
:10496000FB681B689B6903F00203022BCBD1002379
:1049700018461037BD4680BD80B584B000AFF860E2
:10498000B9607A6028E07A68B968F86800F030F8B1
:104990000346002B01D0012326E0FEF755FB02461B
:1049A0007B68D31ABA689A4202D3BB68002B13D132
:1049B000FB685B6C43F02002FB685A64FB682022B2
:1049C00083F84120FB68002283F84220FB68002224
:1049D00083F84020012307E0FB681B689B6903F014
:1049E0002003202BCFD1002318461037BD4680BDB1
:1049F00080B58AB000AFF860B9607A60002387F8AC
:104A00002730FB681B689B69BB6100233B627B68A6
:104A1000FB61BB6903F01003002B75D0FB681B68BA
:104A20001022DA6156E0BB68B3F1FF3F52D0FEF7C7
:104A30000BFB0246FB69D31ABA689A4202D3BB68E1
:104A4000002B47D1FB681B685B6803F480437B61E4
:104A5000FB6893F84230FB74FB681B689B6903F4A6
:104A60000043B3F5004F2ED17B69B3F5804F2AD0B8
:104A7000FB7C202B27D0FB681B685A68FB681B68EF
:104A800042F480425A60FEF7DFFAF8611BE0FEF75D
:104A9000DBFA0246FB69D31A192B14D9FB685B6C4D
:104AA00043F02002FB685A64FB68202283F841200F
:104AB000FB68002283F84220FB68002283F8402034
:104AC000012387F82730FB681B689B6903F02003EC
:104AD000202BDCD1FB681B689B6903F02003202B93
:104AE00003D097F82730002B9DD097F82730002B64
:104AF00003D1FB681B682022DA613B6A43F00403A0
:104B00003B62012387F82730FB681B689B69BB6108
:104B1000BB6903F48073002B0BD03B6A43F00103A5
:104B20003B62FB681B684FF48072DA61012387F8EF
:104B30002730BB6903F48063002B0BD03B6A43F042
:104B400008033B62FB681B684FF48062DA61012353
:104B500087F82730BB6903F40073002B0BD03B6A46
:104B600043F002033B62FB681B684FF40072DA619A
:104B7000012387F8273097F82730002B1CD0F868DE
:104B8000FFF756FEFB681B685968FB681A680D4BF7
:104B90000B405360FB685A6C3B6A1A43FB685A64CB
:104BA000FB68202283F84120FB68002283F8422022
:104BB000FB68002283F8402097F8273018462837F2
:104BC000BD4680BD00E800FE80B487B000AFF8604D
:104BD0007B600B467B8113467B727B89C3F30902A2
:104BE0007B7A1B0403F47F031A437B681A433B6AF6
:104BF000134323F000437B61FB681B685A683B6AE0
:104C00005B0D03F48061084B0B43DB4302EA0301B5
:104C1000FB681B687A690A435A6000BF1C37BD46AF
:104C20005DF8047B704700BFFF63FF0380B400AFF3
:104C3000054B1B68044A43F48073136000BFBD46F4
:104C40005DF8047B704700BF0070004080B582B003
:104C500000AF00237B60234B1B6C224A43F0805340
:104C60001364204B1B6C03F080533B603B681E4B6E
:104C70001B681D4A43F480331360FEF7E5F9786042
:104C800009E0FEF7E1F902467B68D31AB3F57A7FB3
:104C900001D9032322E0144B5B6803F48033B3F59E
:104CA000803FEED1104B1B680F4A43F40033136072
:104CB000FEF7CAF9786009E0FEF7C6F902467B689C
:104CC000D31AB3F57A7F01D9032307E0064B5B685B
:104CD00003F40033B3F5003FEED100231846083744
:104CE000BD4680BD003802400070004080B586B0EF
:104CF00000AF78600023FB757B68002B01D1012396
:104D000091E27B681B6803F00103002B00F08780B1
:104D1000964B9B6803F00C03042B0CD0934B9B68C1
:104D200003F00C03082B12D1904B5B6803F4800353
:104D3000B3F5800F0BD18D4B1B6803F40033002BB0
:104D40006CD07B685B68002B68D101236BE27B68C9
:104D50005B68B3F5803F06D1844B1B68834A43F4FC
:104D6000803313602EE07B685B68002B0CD17F4B97
:104D70001B687E4A23F4803313607C4B1B687B4A9C
:104D800023F4802313601DE07B685B68B3F5A02FDC
:104D90000CD1764B1B68754A43F480231360734B28
:104DA0001B68724A43F4803313600BE06F4B1B683F
:104DB0006E4A23F4803313606C4B1B686B4A23F4F8
:104DC000802313607B685B68002B13D0FEF73CF9EF
:104DD000386108E0FEF738F902463B69D31A642BC4
:104DE00001D903231FE2614B1B6803F40033002B3E
:104DF000F0D014E0FEF728F9386108E0FEF724F956
:104E000002463B69D31A642B01D903230BE2574BAB
:104E10001B6803F40033002BF0D100E000BF7B6877
:104E20001B6803F00203002B69D0504B9B6803F012
:104E30000C03002B0BD04D4B9B6803F00C03082B8D
:104E40001CD14A4B5B6803F48003002B16D1474BFF
:104E50001B6803F00203002B05D07B68DB68012B85
:104E600001D00123DFE1414B1B6823F0F8027B688E
:104E70001B69DB003D4913430B6040E07B68DB6846
:104E8000002B23D0394B1B68384A43F001031360D1
:104E9000FEF7DAF8386108E0FEF7D6F802463B691B
:104EA000D31A022B01D90323BDE1304B1B6803F059
:104EB0000203002BF0D02D4B1B6823F0F8027B6817
:104EC0001B69DB00294913430B6018E0274B1B6863
:104ED000264A23F001031360FEF7B6F8386108E0B4
:104EE000FEF7B2F802463B69D31A022B01D903231D
:104EF00099E11E4B1B6803F00203002BF0D17B6885
:104F00001B6803F00803002B38D07B685B69002B1B
:104F100019D0164B5B6F154A43F001035367FEF738
:104F200093F8386108E0FEF78FF802463B69D31A20
:104F3000022B01D9032376E10C4B5B6F03F00203D4
:104F4000002BF0D01AE0094B5B6F084A23F00103F5
:104F50005367FEF779F838610AE0FEF775F8024604
:104F60003B69D31A022B03D903235CE100380240CA
:104F7000914B5B6F03F00203002BEED17B681B6843
:104F800003F00403002B00F0A4808B4B1B6C03F098
:104F90008053002B0DD1884B1B6C874A43F0805304
:104FA0001364854B1B6C03F08053BB60BB6801230B
:104FB000FB75824B1B6803F48073002B18D17F4B69
:104FC0001B687E4A43F480731360FEF73DF8386136
:104FD00008E0FEF739F802463B69D31A642B01D981
:104FE000032320E1754B1B6803F48073002BF0D082
:104FF0007B689B68012B06D16F4B1B6F6E4A43F099
:10500000010313672DE07B689B68002B0CD16A4B72
:105010001B6F694A23F001031367674B1B6F664AD6
:1050200023F0040313671CE07B689B68052B0CD1FD
:10503000614B1B6F604A43F0040313675E4B1B6FA9
:105040005D4A43F0010313670BE05B4B1B6F5A4A49
:1050500023F001031367584B1B6F574A23F00403D7
:1050600013677B689B68002B15D0FDF7EDFF386157
:105070000AE0FDF7E9FF02463B69D31A41F28832A4
:10508000934201D90323CEE04B4B1B6F03F0020385
:10509000002BEED014E0FDF7D7FF38610AE0FDF7F2
:1050A000D3FF02463B69D31A41F28832934201D9B9
:1050B0000323B8E0404B1B6F03F00203002BEED13B
:1050C000FB7D012B05D13C4B1B6C3B4A23F08053ED
:1050D00013647B689B69002B00F0A480364B9B68AF
:1050E00003F00C03082B6BD07B689B69022B49D122
:1050F000314B1B68304A23F080731360FDF7A4FF27
:10510000386108E0FDF7A0FF02463B69D31A022B85
:1051100001D9032387E0284B1B6803F00073002BA1
:10512000F0D17B68DA697B681B6A1A437B685B6A2B
:105130009B011A437B689B6A5B08013B1B041A4373
:105140007B68DB6A1B0613431B4A43F00053536022
:10515000194B1B68184A43F080731360FDF774FF06
:10516000386108E0FDF770FF02463B69D31A022B55
:1051700001D9032357E0104B1B6803F00073002B89
:10518000F0D04FE00C4B1B680B4A23F08073136088
:10519000FDF75AFF386108E0FDF756FF02463B690C
:1051A000D31A022B01D903233DE0034B1B6803F004
:1051B0000073002BF0D135E0003802400070004051
:1051C0001B4B5B68FB607B689B69012B28D0FB68ED
:1051D00003F480027B68DB699A4221D1FB6803F00B
:1051E0003F027B681B6A9A421AD1FA6847F6C0737D
:1051F00013407A68526A9201934211D1FB6803F41A
:1052000040327B689B6A5B08013B1B049A4207D1D2
:10521000FB6803F070627B68DB6A1B069A4201D070
:10522000012300E0002318461837BD4680BD00BFAB
:105230000038024080B584B000AF78603960002348
:10524000FB607B68002B01D10123D0E06A4B1B6817
:1052500003F00F033A689A4210D9674B1B6823F09A
:105260000F0265493B6813430B60634B1B6803F0F7
:105270000F033A689A4201D00123B8E07B681B68AB
:1052800003F00203002B20D07B681B6803F00403AB
:10529000002B05D0594B9B68584A43F4E053936068
:1052A0007B681B6803F00803002B05D0534B9B68F9
:1052B000524A43F460439360504B9B6823F0F002E2
:1052C0007B689B684D4913438B607B681B6803F0C8
:1052D0000103002B40D07B685B68012B07D1474B53
:1052E0001B6803F40033002B15D101237FE07B689A
:1052F0005B68022B07D1414B1B6803F00073002B46
:1053000009D1012373E03D4B1B6803F00203002B1E
:1053100001D101236BE0394B9B6823F003027B68CA
:105320005B68364913438B60FDF78EFEF8600AE038
:10533000FDF78AFE0246FB68D31A41F28832934297
:1053400001D9032353E02D4B9B6803F00C027B68CB
:105350005B689B009A42EBD1274B1B6803F00F035D
:105360003A689A4210D2244B1B6823F00F0222495C
:105370003B6813430B60204B1B6803F00F033A6834
:105380009A4201D0012332E07B681B6803F00403DA
:10539000002B08D0194B9B6823F4E0527B68DB6834
:1053A000164913438B607B681B6803F00803002BCE
:1053B00009D0124B9B6823F460427B681B69DB00B9
:1053C0000E4913438B6000F021F802460B4B9B689B
:1053D0001B0903F00F030A49CB5C22FA03F3094AC5
:1053E0001360094B1B681846FDF7EAFD00231846B9
:1053F0001037BD4680BD00BF003C0240003802406F
:10540000CCF3000800000020040000202DE9B04F7C
:1054100090B000AF00237B630023FB6300233B635A
:105420000023BB63594B9B6803F00C03082B0DD082
:10543000082B00F2A180002B02D0042B03D09BE0AC
:10544000534BBB639BE0534BBB6398E04F4B5B6894
:1054500003F03F037B634D4B5B6803F48003002B39
:1054600028D04A4B5B689B0900223B627A623B6A08
:10547000C3F308000021474B03FB01F2002300FBAC
:1054800003F31344434AA0FB0212FA620A46BA62CB
:10549000FA6A1344FB627B6B0022BB61FA61D7E9B5
:1054A0000623D7E90A01FBF789FB02460B461346A0
:1054B000FB6353E0354B5B689B0900223B617A61DB
:1054C0003B69C3F3080A4FF0000B52465B464FF0AE
:1054D00000004FF00001590141EAD261500102463B
:1054E0000B46B2EB0A0863EB0B094FF000024FF0DA
:1054F00000034FEA891343EA98634FEA8812B2EB3C
:10550000080463EB09054FF000024FF00003EB00C5
:1055100043EA5473E20014461D4614EB0A033B6051
:1055200045EB0B037B604FF000024FF00003D7E91F
:10553000004529468B02214643EA915321468A02BF
:10554000104619467B6B0022BB60FA60D7E9022344
:10555000FBF734FB02460B461346FB630B4B5B68C1
:105560001B0C03F0030301335B003B63FA6B3B6BE3
:10557000B2FBF3F3BB6302E0054BBB6300BFBB6B45
:1055800018464037BD46BDE8B08F00BF0038024026
:105590000024F40040787D0180B588B000AF7860C9
:1055A00000237B6100233B610023FB600023FB6140
:1055B0000023BB617B681B6803F00103002B12D042
:1055C000694B9B68684A23F400039360664B9A68B2
:1055D0007B685B6B644913438B607B685B6B002B60
:1055E00001D10123FB617B681B6803F40023002BBE
:1055F00017D05D4BD3F88C3023F440127B68DB6B03
:1056000059491343C1F88C307B68DB6BB3F5801FBD
:1056100001D10123FB617B68DB6B002B01D10123EE
:10562000BB617B681B6803F48013002B17D04E4BC3
:10563000D3F88C3023F440027B681B6C4A49134337
:10564000C1F88C307B681B6CB3F5800F01D101234E
:10565000FB617B681B6C002B01D10123BB617B6864
:105660001B6803F08073002B01D00123FB617B6872
:105670001B6803F02003002B00F08B803A4B1B6C5F
:10568000394A43F080531364374B1B6C03F080534B
:10569000BB60BB68354B1B68344A43F480731360AE
:1056A000FDF7D2FC786108E0FDF7CEFC02467B698D
:1056B000D31A642B01D9032357E32C4B1B6803F443
:1056C0008073002BF0D0284B1B6F03F440733B61B9
:1056D0003B69002B35D07B681B6B03F440733A6940
:1056E0009A422ED0204B1B6F23F440733B611E4B1C
:1056F0001B6F1D4A43F4803313671B4B1B6F1A4A01
:1057000023F480331367184A3B691367164B1B6FEA
:1057100003F00103012B14D1FDF796FC78610AE038
:10572000FDF792FC02467B69D31A41F2883293421C
:1057300001D9032319E30C4B1B6F03F00203002B69
:10574000EED07B681B6B03F44073B3F5407F11D13F
:10575000054B9B6823F4F8127B68196B044B0B40D4
:10576000014913438B600BE0003802400070004099
:10577000FFFCFF0FAA4B9B68A94A23F4F813936020
:10578000A74B1A6F7B681B6BC3F30B03A44913432E
:105790000B677B681B6803F01003002B10D0A04B35
:1057A000D3F88C309E4A23F08073C2F88C309C4B27
:1057B000D3F88C207B689B6B99491343C1F88C30DC
:1057C0007B681B6803F48043002B0AD0944BD3F80A
:1057D000903023F440327B685B6E91491343C1F8EB
:1057E00090307B681B6803F40043002B0AD08C4B7D
:1057F000D3F8903023F440227B689B6E8849134392
:10580000C1F890307B681B6803F48033002B0AD00A
:10581000834BD3F8903023F440127B68DB6E8049D1
:105820001343C1F890307B681B6803F40033002BEE
:105830000AD07B4BD3F8903023F440027B681B6F77
:1058400077491343C1F890307B681B6803F040032D
:10585000002B0AD0724BD3F8903023F003027B6800
:105860005B6C6F491343C1F890307B681B6803F091
:105870008003002B0AD06A4BD3F8903023F00C023F
:105880007B689B6C66491343C1F890307B681B684A
:1058900003F48073002B0AD0614BD3F8903023F0CF
:1058A00030027B68DB6C5E491343C1F890307B6843
:1058B0001B6803F40073002B0AD0594BD3F89030C7
:1058C00023F0C0027B681B6D55491343C1F890302B
:1058D0007B681B6803F48063002B0AD0504BD3F81D
:1058E000903023F440727B685B6D4D491343C1F8DF
:1058F00090307B681B6803F40063002B0AD0484B90
:10590000D3F8903023F440627B689B6D4449134385
:10591000C1F890307B681B6803F48053002B0AD0D9
:105920003F4BD3F8903023F440527B68DB6D3C4909
:105930001343C1F890307B681B6803F40053002BBD
:105940000AD0374BD3F8903023F440427B681B6E6B
:1059500033491343C1F890307B681B6803F480031C
:10596000002B0AD02E4BD3F8903023F080627B6856
:105970009B6F2B491343C1F890307B681B6803F47D
:105980000013002B11D0264BD3F8903023F0006287
:105990007B68DB6F22491343C1F890307B68DB6F73
:1059A000B3F1006F01D10123BB617B681B6803F079
:1059B0000803002B01D00123BB617B681B6803F443
:1059C0008023002B0AD0164BD3F8903023F040727E
:1059D0007B685B6F12491343C1F890307B681B688A
:1059E00003F40003002B0BD00D4BD3F8903023F0C1
:1059F00080527B68D3F8803009491343C1F8903056
:105A0000FB69012B06D07B681B6803F00073002B39
:105A100000F0D980024B1B68014A23F0806301E04B
:105A2000003802401360FDF70FFB786108E0FDF7D6
:105A30000BFB02467B69D31A642B01D9032394E143
:105A40006C4B1B6803F00063002BF0D17B681B6874
:105A500003F00103002B21D07B685B6B002B1DD171
:105A6000644BD3F884301B0C03F003033B61614BA0
:105A7000D3F884301B0E03F00F03FB607B685B6878
:105A80009A013B691B041A43FB681B061A437B6897
:105A90009B681B0757491343C1F884307B681B6818
:105AA00003F40023002B04D07B68DB6BB3F5801F6D
:105AB0000AD07B681B6803F48013002B2ED07B6810
:105AC0001B6CB3F5800F29D14A4BD3F884301B0CE3
:105AD00003F003033B61474BD3F884301B0F03F003
