:020000040800F2
:1000000000280020F9150008C5130008CB130008CC
:10001000D1130008D7130008DD130008000000000A
:10002000000000000000000000000000E3130008D2
:10003000EF13000800000000FB130008071400087D
:100040004116000841160008411600084116000834
:100050004116000841160008411600084116000824
:100060004116000841160008411600084116000814
:100070004116000841160008411600084116000804
:1000800041160008411600084116000841160008F4
:1000900041160008411600084116000841160008E4
:1000A00041160008411600084116000841160008D4
:1000B0001514000841160008000000004116000851
:1000C0004116000800000000000000004116000872
:1000D0000000000051140008651400080000000032
:1000E00041160008411600084116000800000000F3
:1000F0000000000000000000000000000000000000
:0C01000000000000000000005FF808F1A3
:10010C0010B5054C237833B9044B13B10448AFF345
:10011C0000800123237010BD70000020000000003F
:10012C00244F000808B5034B1BB103490348AFF338
:10013C00008008BD0000000074000020244F00085F
:10014C00034613F8012B002AFBD1181A013870470B
:10015C0080B487B000AFF860B9601346FB80002311
:10016C00FB750023BB7512E0BB7DFA6813441A784B
:10017C00BB7DB9680B441B789A4203D1FB7D0133DC
:10018C00FB7501E00023FB75BB7D0133BB75BB7DAB
:10019C009BB2FA889A42E7D8FB7D9BB2FA889A42C6
:1001AC0001D1012300E0002318461C37BD4680BC5A
:1001BC007047000080B500AF062227492748FFF79B
:1001CC00C7FF0346002B0DD000224FF400512448EA
:1001DC0001F0F2FD4FF4FA730B222249224803F08E
:1001EC00D6F82CE0072221491C48FFF7B1FF034643
:1001FC00002B0DD001224FF40051194801F0DCFD09
:10020C004FF4FA730C221A49174803F0C0F816E0A1
:10021C001248FFF795FF03461A46104B1344154935
:10022C001A460B461B8813800C48FFF789FF0346C0
:10023C009AB24FF4FA7309490B4803F0A8F832222A
:10024C000021064803F0FAFD0B4B00221A700B4BF1
:10025C0000221A7000BF80BD3C4F0008C402002071
:10026C0000100140444F000870010020504F00085E
:10027C00584F0008684F0008F7020020F6020020D3
:10028C0080B588B000AF01F0D7F900F089F800F024
:10029C00A5F900F0CBF800F0FFF800F075F900F0CC
:1002AC0049F9354803F06CFE3B1D184600F026FF5B
:1002BC003B1D3249184600F02FFD3B1D2F491846B7
:1002CC0000F02AFD0346002B10D12C4B5B7819460D
:1002DC002A4B9B781A462A4803F0B8FD3B1D18465A
:1002EC0000F03EFD274803F04BFE02E04FF0FF33D9
:1002FC003DE0381D4FF47A730022234900F052FD83
:10030C000346224A1360214B1B68B3F1FF3F03D114
:10031C002E2003F0B3FDECE71D4803F097FD0023FE
:10032C00FB771BE0FB7F184AD35C1946194803F096
:10033C008DFD01224FF40051174801F03DFDFA20CC
:10034C0001F0DCF900224FF40051134801F034FDA8
:10035C00FA2001F0D3F9FB7F0133FB77FA7F0B4BCB
:10036C001B689A42DEDB0D4803F00AFEC1E7184613
:10037C002037BD4680BD00BF6C4F0008B401002083
:10038C00744F0008A04F0008B4020020C0020020E7
:10039C00C04F0008D84F000800100140E04F000883
:1003AC0080B590B000AF07F1180328220021184641
:1003BC0003F044FD3B1D00221A605A609A60DA601B
:1003CC001A610123BB614FF48033FB6100233B6254
:1003DC000123BB6202237B634FF48033BB634FF476
:1003EC00E013FB6307F11803184601F0FDFC03460C
:1003FC00002B01D000F094F90F237B600223BB602B
:10040C000023FB604FF480633B6100237B613B1D49
:10041C000221184601F06AFF0346002B01D000F0C0
:10042C007FF900BF4037BD4680BD000080B500AFEE
:10043C00174B184A1A60164B4FF482725A60144BC1
:10044C0000229A60124B0022DA60114B00221A61D2
:10045C000F4B00225A610E4B4FF400729A610C4BF9
:10046C002022DA610A4B80221A62094B00225A625E
:10047C00074B00229A62064B0A22DA62044802F009
:10048C00CDF80346002B01D000F04AF900BF80BD27
:10049C008C0000200030014080B586B000AF07F121
:1004AC00080300221A605A609A60DA603B46002208
:1004BC001A605A601E4B4FF080421A601C4B4FF46E
:1004CC0034725A601A4B00229A60194B40F2CF7268
:1004DC00DA60174B00221A61154B00229A611448FE
:1004EC0002F068FB0346002B01D000F019F94FF421
:1004FC008053BB6007F1080319460D4802F0B1FCAC
:10050C000346002B01D000F00BF900233B600023C5
:10051C007B603B461946064802F082FE0346002BE0
:10052C0001D000F0FDF800BF1837BD4680BD00BFFC
:10053C00E400002080B500AF114B124A1A60104B3A
:10054C004FF416525A600E4B00229A600C4B00224C
:10055C00DA600B4B00221A61094B0C225A61084BD2
:10056C0000229A61064B0022DA61054802F0C2FEB5
:10057C000346002B01D000F0D3F800BF80BD00BFB4
:10058C002C0100200038014080B500AF114B124AFD
:10059C001A60104B4FF496425A600E4B00229A6030
:1005AC000C4B0022DA600B4B00221A61094B0C2217
:1005BC005A61084B00229A61064B0022DA61054809
:1005CC0002F098FE0346002B01D000F0A9F800BF02
:1005DC0080BD00BF700100200044004080B588B091
:1005EC0000AF07F1100300221A605A609A60DA60BB
:1005FC003E4B9B693D4A43F0100393613B4B9B6917
:10060C0003F01003FB60FB68384B9B69374A43F0DF
:10061C0020039361354B9B6903F02003BB60BB68DF
:10062C00324B9B69314A43F0040393612F4B9B6916
:10063C0003F004037B607B682C4B9B692B4A43F0D3
:10064C0008039361294B9B6903F008033B603B68EB
:10065C0001224FF40051264801F0AEFB002241F676
:10066C001001244801F0A8FB00220121224801F0CE
:10067C00A3FB4FF400533B6101237B610023BB615F
:10068C000223FB6107F110031946194801F018FA0F
:10069C0041F610033B6101237B610023BB61022304
:1006AC00FB6107F110031946124801F009FA012306
:1006BC003B6101237B610023BB610223FB6107F1DA
:1006CC00100319460C4801F0FBF948F202033B6198
:1006DC0000237B610023BB6107F110031946064818
:1006EC0001F0EEF900BF2037BD4680BD001002407E
:1006FC000010014000080140000C014080B582B0A0
:10070C0000AF7860391D4FF6FF730122034802F0E9
:10071C003EFE7B6818460837BD4680BD7001002040
:10072C0080B400AF72B600BFFEE780B5C8B000AFB2
:10073C0007F59073A3F58A73186007F59073A3F50A
:10074C008C73196007F59073A3F58D731A8007F5F8
:10075C009073A3F58D731B88FF2B06D807F5907348
:10076C00A3F58D731B88002B02D14FF0FF33AAE049
:10077C00002387F81F3107F59073A3F586730022C9
:10078C001A7007F59073A3F5867300225A7007F55B
:10079C009073A3F58673FF229A70002387F81E319D
:1007AC0010E097F81E3107F59072A2F58672D25CB4
:1007BC0097F81F31134487F81F3197F81E31013316
:1007CC0087F81E3197F81E31022BEAD907F5907382
:1007DC00A3F58D731B88DAB207F59073A3F58673B6
:1007EC00DA7007F59073A3F58D731B88DBB25B424F
:1007FC00DAB207F59073A3F586731A71002387F8A4
:10080C001D3123E097F81D3107F59072A2F58C721B
:10081C0012681A4497F81D310533117807F5907258
:10082C00A2F58672D15497F81D3107F59072A2F596
:10083C008C72126813441A7897F81F31134487F896
:10084C001F3197F81D31013387F81D3197F81D3191
:10085C009BB207F59072A2F58D7212889A42D1D88C
:10086C0007F59073A3F58D731B88053397F81F213B
:10087C00D243D1B207F59072A2F58672D15407F526
:10088C009073A3F58D731B88063307F59072A2F550
:10089C0086720021D15407F59073A3F58A731B68F7
:1008AC009B6807F59072A2F58D721288073291B28F
:1008BC0007F11402104698470346002B02D04FF064
:1008CC00FF3300E00023184607F59077BD4680BD46
:1008DC0080B5C8B000AF07F59073A3F58A731860A4
:1008EC0007F59073A3F58C73196007F59073A3F556
:1008FC008D731A80002387F81F3107F59073A3F5C9
:10090C008A731B685B6807F59072A2F58D7212886A
:10091C00073291B207F1140210469847002387F86A
:10092C001E3119E097F81E31013387F81E3107F597
:10093C009073A3F58D731B88DA1D97F81E319A42BC
:10094C000ADA07F59073A3F58A731B685B695B4839
:10095C0098474FF0FF33ABE097F81E3107F59072D4
:10096C00A2F58672D35C002BDCD097F81E3107F50C
:10097C009072A2F58672D35CFF2B0AD007F59073A8
:10098C00A3F58A731B685B694C4898474FF0FF339B
:10099C008EE097F81E31013387F81E3107F59073FE
:1009AC00A3F58D731B88DA1D97F81E319A420ADA6B
:1009BC0007F59073A3F58A731B685B6940489847E9
:1009CC004FF0FF3374E097F81E3107F59072A2F5E3
:1009DC008672D35C87F81B3197F81E31013307F50B
:1009EC009072A2F58672D25C97F81B311344DBB27D
:1009FC00002B0AD007F59073A3F58A731B685B690B
:100A0C00304898474FF0FF3352E0002387F81D31F0
:100A1C0014E097F81E319A1C97F81D31134407F512
:100A2C009072A2F58672D25C97F81F31134487F846
:100A3C001F3197F81D31013387F81D3197F81B21B1
:100A4C0097F81D319A42E4D297F81F31002B0AD047
:100A5C0007F59073A3F58A731B685B691A4898476E
:100A6C004FF0FF3324E0002387F81C3118E097F88F
:100A7C001E319A1C97F81C311A4497F81C3107F553
:100A8C009071A1F58C7109680B4407F59071A1F573
:100A9C0086718A5C1A7097F81C31013387F81C3107
:100AAC0097F81C2197F81B319A42E0D397F81B3129
:100ABC00184607F59077BD4680BD00BFE44F00088F
:100ACC0018500008345000086450000890B5C7B0A6
:100ADC0000AF07F58C74A4F586742060084607F502
:100AEC008C71A1F58A710A60194607F58C73A3F213
:100AFC000D1302461A7007F58C73A3F588730A461A
:100B0C001A8007F58C73A3F58473D4221A7007F539
:100B1C008C73A3F5847307F58C72A2F20D12127804
:100B2C005A70002387F8173112E097F81731D7F86D
:100B3C0028211A4497F817310233117807F58C7273
:100B4C00A2F58472D15497F81731013387F8173115
:100B5C0097F817319BB2B7F82C219A42E5D8B7F821
:100B6C002C3102339AB207F1100107F58C73A3F5FF
:100B7C0086731868FFF7D9FD0346002B11D007F5D3
:100B8C008C73A3F586731B681B69984707F58C73E8
:100B9C00A3F586731B685B695B4898474FF0FF337E
:100BAC00ACE007F58C73A3F586731B68DB68D7F88C
:100BBC0030019847034683F00103DBB2002B02D0CF
:100BCC004FF0FF339AE007F58C73A3F586731B681F
:100BDC005B6807F11002062110469847002387F83E
:100BEC0016311CE097F81631484AD25C97F816314A
:100BFC0007F58C71A1F58471CB5C9A420AD007F58C
:100C0C008C73A3F586731B685B69414898474FF05A
:100C1C00FF3373E097F81631013387F8163197F8E4
:100C2C001631052BDED907F58C73A3F586731B687B
:100C3C00DB68D7F830019847034683F00103DBB239
:100C4C00002B02D04FF0FF3358E007F58C73A3F55F
:100C5C0088731B8802339AB207F1100107F58C7365
:100C6C00A3F586731868FFF733FEC7F8100107F574
:100C7C008C73A3F584731B78D52B0DD107F58C736E
:100C8C00A3F584735B781A4607F58C73A3F20D13E6
:100C9C001B7801339A420AD007F58C73A3F586733F
:100CAC001B685B691B4898474FF0FF3326E0002315
:100CBC0087F8153115E097F815319A1C97F815310E
:100CCC0007F58C71A1F58A7109680B4407F58C71D5
:100CDC00A1F584718A5C1A7097F81531013387F885
:100CEC00153197F815319BB207F58C72A2F5887205
:100CFC0012889A42DFD8D7F81031023B184607F514
:100D0C008E77BD4690BD00BF9850000880510008FA
:100D1C00AC500008D850000880B586B004AF78609D
:100D2C0039604FF4FA73029300230193002300936C
:100D3C0004233A6802217868FFF7C8FE0346B3F132
:100D4C00FF3F06D17B685B69044898474FF0FF333F
:100D5C0000E0002318460837BD4680BD005100084E
:100D6C0080B588B004AF78600D4A07F10C031268A7
:100D7C00114619800233120C1A704FF47A730293D5
:100D8C000323019307F10C03009300230022142189
:100D9C007868FFF79BFE002318461037BD4680BDD0
:100DAC001C51000880B590B004AFF860B9603B608E
:100DBC001346FB71012387F82430FB7987F8253023
:100DCC0007F110023B6802930223019307F12403FD
:100DDC00009313234A21F868FFF778FEB862BB6AC8
:100DEC00002B02DA4FF0FF332EE03B7C012B06D0B8
:100DFC00FB685B69164898474FF0FF3324E07B7D16
:100E0C00072B06D9FB685B69124898474FF0FF33F4
:100E1C001AE0002387F82F3010E097F82F309A1D36
:100E2C0097F82F30B9680B4430323A4412F8202C22
:100E3C001A7097F82F30013387F82F307B7D97F895
:100E4C002F209A42E9D37B7D18463037BD4680BDB2
:100E5C00205100084051000880B500AF01224FF42A
:100E6C0000610E4800F0A8FF642000F047FC00224F
:100E7C004FF40061094800F09FFF4FF4FA7000F046
:100E8C003DFC01224FF40061044800F095FF642002
:100E9C0000F034FC0023184680BD00BF0008014060
:100EAC0080B582B000AF78607968034802F0CEFF5D
:100EBC0000BF0837BD4680BD6851000880B584B0BE
:100ECC0002AF78600B46FB70002201210D4800F048
:100EDC0073FF012000F012FCFB789BB20A220092F7
:100EEC007A687968084801F01DFC012000F006FCC6
:100EFC0001220121034800F05FFF00BF0837BD4607
:100F0C0080BD00BF000C01408C0000202DE9F04397
:100F1C0087B000AF78600B467B806B461E467B88A3
:100F2C00591C4B1E3B610A460023904699464FF0D4
:100F3C0000024FF000034FEAC90343EA58734FEA2B
:100F4C00C8020A46002314461D464FF000024FF01B
:100F5C000003EB0043EA5473E2000B460733DB0853
:100F6C00DB00ADEB030D6B460033FB60FB6803222B
:100F7C001A70052000F0C2FB7B88DBB20133DBB2B8
:100F8C001946F868FFF79AFF0023FB750AE0FB7D12
:100F9C005A1CFB7D79680B44F9688A5C1A70FB7DDE
:100FAC000133FB75FB7D9BB27A889A42EFD8002304
:100FBC00B54618461C37BD46BDE8F0832DE9F04315
:100FCC0087B000AF78600B467B806B461E467B88F3
:100FDC00591C4B1E3B610A460023904699464FF024
:100FEC0000024FF000034FEAC90343EA58734FEA7B
:100FFC00C8020A46002314461D464FF000024FF06B
:10100C000003EB0043EA5473E2000B460733DB08A2
:10101C00DB00ADEB030D6B460033FB60FB6801227C
:10102C001A700023FB750AE0FB7D7A681A44FB7D7D
:10103C0001331178FA68D154FB7D0133FB75FB7DCC
:10104C009BB27A889A42EFD87B88DBB20133DBB251
:10105C001946F868FFF732FF0023B54618461C37CF
:10106C00BD46BDE8F08380B584B000AF7860022344
:10107C003B8100F039FBF86010E00A2000F03EFBE9
:10108C0007F1080302211846FFF718FF7B7A012BA2
:10109C0001D101230BE0052000F030FB00F024FB14
:1010AC000246FB68D31A7A689A42E6D8002318469F
:1010BC001037BD4680BD000080B582B000AF002364
:1010CC003B714FF47A7000F019FB002201210A48A1
:1010DC0000F072FE022000F011FB3B1D01211846AE
:1010EC00FFF7ECFE4FF47A7000F008FB0023184673
:1010FC000837BD4680BD00BF000C014080B582B0F2
:10110C0000AF78607B680C4A1A607B680B4A5A60A7
:10111C007B680B4A9A607B680A4ADA607B680A4AE9
:10112C001A617B68094A5A617B681B69984700BF42
:10113C000837BD4680BD00BF650E0008190F0008BA
:10114C00C90F000873100008C5100008AD0E000888
:10115C0080B485B000AF154B9B69144A43F0010372
:10116C009361124B9B6903F00103BB60BB680F4B8F
:10117C00DB690E4A43F08053D3610C4BDB6903F0FF
:10118C0080537B607B680A4B5B68FB60FB6823F0D9
:10119C00E063FB60FB6843F00073FB60044AFB6890
:1011AC00536000BF1437BD4680BC7047001002402E
:1011BC000000014080B588B000AF786007F11003E3
:1011CC0000221A605A609A60DA607B681B681B4ABE
:1011DC0093422FD11A4B9B69194A43F48053936164
:1011EC00174B9B6903F48053FB60FB68144B9B69A2
:1011FC00134A43F004039361114B9B6903F00403FE
:10120C00BB60BB68A0233B6102237B610323FB61B2
:10121C0007F1100319460B4800F052FC40233B61C8
:10122C0000237B610023BB6107F1100319460548BD
:10123C0000F046FC00BF2037BD4680BD00300140A9
:10124C00001002400008014080B584B000AF786007
:10125C007B681B68B3F1804F13D10C4BDB690B4AD5
:10126C0043F00103D361094BDB6903F00103FB601D
:10127C00FB68002200211C2000F03BFB1C2000F02E
:10128C0054FB00BF1037BD4680BD00BF00100240AC
:10129C0080B58AB000AF786007F1180300221A609D
:1012AC005A609A60DA607B681B683F4A93423AD175
:1012BC003E4B9B693D4A43F4804393613B4B9B6996
:1012CC0003F480437B617B69384B9B69374A43F05D
:1012DC0004039361354B9B6903F004033B613B6949
:1012EC004FF40073BB610223FB6103237B6207F1A4
:1012FC00180319462E4800F0E3FB4FF48063BB61E2
:10130C000023FB6100233B6207F1180319462848B0
:10131C0000F0D6FB00220021252000F0EAFA25205F
:10132C0000F003FB3CE07B681B68224A934237D1F8
:10133C001E4BDB691D4A43F40033D3611B4BDB6945
:10134C0003F40033FB60FB68184B9B69174A43F0AE
:10135C0004039361154B9B6903F00403BB60BB68EA
:10136C000423BB610223FB6103237B6207F1180397
:10137C0019460F4800F0A4FB0823BB610023FB6156
:10138C0000233B6207F118031946094800F098FB4B
:10139C0000220021262000F0ACFA262000F0C5FA2D
:1013AC0000BF2837BD4680BD003801400010024008
:1013BC00000801400044004080B400AFFEE780B458
:1013CC0000AFFEE780B400AFFEE780B400AFFEE7ED
:1013DC0080B400AFFEE780B400AF00BFBD4680BC58
:1013EC00704780B400AF00BFBD4680BC704780B46E
:1013FC0000AF00BFBD4680BC704780B500AF00F0A9
:10140C0061F900BF80BD000080B500AF0A4B1B78AE
:10141C00002B05D0094B1B780133DAB2074B1A703D
:10142C00064B1B78052B01D9FEF7C4FE044801F0CE
:10143C0010FC00BF80BD00BFC4020020F6020020DB
:10144C00E400002080B500AF024802F0D5F800BFE0
:10145C0080BD00BF2C01002080B500AF0D4B1B7868
:10146C005A1CD1B20B4A11701A460B4BD1180A23D5
:10147C0001220A4802F01DF8064B1B78013B064A74
:10148C00D35C0A2B01D1FEF795FE044802F0B4F8A8
:10149C0000BF80BDF7020020C402002070010020B4
:1014AC0080B586B000AFF860B9607A6000237B61CC
:1014BC000AE0AFF300800146BB685A1CBA60CAB29E
:1014CC001A707B6901337B617A697B689A42F0DB25
:1014DC007B6818461837BD4680BD80B586B000AF16
:1014EC00F860B9607A6000237B6109E0BB685A1C24
:1014FC00BA601B781846FFF701F97B6901337B61F1
:10150C007A697B689A42F1DB7B6818461837BD46CE
:10151C0080BD80B483B000AF78604FF0FF331846C5
:10152C000C37BD4680BC704780B483B000AF786088
:10153C0039603B684FF400525A60002318460C3750
:10154C00BD4680BC704780B483B000AF7860012387
:10155C0018460C37BD4680BC704780B485B000AFD0
:10156C00F860B9607A60002318461437BD4680BC19
:10157C007047000080B586B000AF7860144A154BF8
:10158C00D31A7B617B693B61134B1B68002B02D127
:10159C00114B124A1A60104B1A687B6813443A6953
:1015AC009A4207D202F020FC03460C221A604FF03C
:1015BC00FF3309E0084B1B68FB60074B1A687B681C
:1015CC001344054A1360FB6818461837BD4680BDA6
:1015DC000028002000040000F80200201003002066
:1015EC0080B400AF00BFBD4680BC70470C480D49AD
:1015FC000D4A002302E0D458C4500433C4188C4262
:10160C00F9D30A4A0A4C002301E013600432A242C7
:10161C00FBD3FFF7E5FF02F0EDFBFEF731FE704761
:10162C0000000020700000204052000870000020D4
:10163C0010030020FEE7000080B500AF084B1B68CC
:10164C00074A43F010031360032000F047F90F2002
:10165C0000F008F8FFF77CFD0023184680BD00BFA2
:10166C000020024080B582B000AF7860124B1A683F
:10167C00124B1B7819464FF47A73B3FBF1F3B2FBA0
:10168C00F3F3184600F05FF90346002B01D0012359
:10169C000EE07B680F2B0AD8002279684FF0FF30E0
:1016AC0000F027F9064A7B681360002300E0012351
:1016BC0018460837BD4680BD0000002008000020F9
:1016CC000400002080B400AF054B1B781A46054B74
:1016DC001B681344034A136000BFBD4680BC7047AF
:1016EC0008000020FC02002080B400AF024B1B68F5
:1016FC001846BD4680BC7047FC02002080B584B003
:10170C0000AF7860FFF7F0FFB8607B68FB60FB68A8
:10171C00B3F1FF3F05D00A4B1B781A46FB68134404
:10172C00FB6000BFFFF7E0FF0246BB68D31AFA6804
:10173C009A42F7D800BF00BF1037BD4680BD00BF2E
:10174C000800002080B485B000AF78607B6803F09F
:10175C000703FB600C4BDB68BB60BA684FF6FF03FA
:10176C001340BB60FB681A02BB68134343F0BF63B2
:10177C0043F40033BB60044ABB68D36000BF14372A
:10178C00BD4680BC704700BF00ED00E080B400AFE8
:10179C00044BDB681B0A03F007031846BD4680BCEC
:1017AC00704700BF00ED00E080B483B000AF03468B
:1017BC00FB7197F90730002B0BDBFB7903F01F0251
:1017CC00064997F907305B09012000FA02F241F84B
:1017DC00232000BF0C37BD4680BC704700E100E001
:1017EC0080B483B000AF03463960FB7197F90730C2
:1017FC00002B0ADB3B68DAB20C4997F9073012016F
:10180C00D2B20B4483F800230AE03B68DAB20849F1
:10181C00FB7903F00F03043B1201D2B20B441A768E
:10182C0000BF0C37BD4680BC704700BF00E100E034
:10183C0000ED00E080B489B000AFF860B9607A6068
:10184C00FB6803F00703FB61FB69C3F10703042B7F
:10185C0028BF0423BB61FB690433062B02D9FB6947
:10186C00033B00E000237B614FF0FF32BB6902FABF
:10187C0003F3DA43BB681A407B699A404FF0FF319F
:10188C007B6901FA03F3D9437B680B401343184679
:10189C002437BD4680BC704780B582B000AF7860FD
:1018AC007B68013BB3F1807F01D301230FE00A4A2F
:1018BC007B68013B53600F214FF0FF30FFF790FF27
:1018CC00054B00229A60044B07221A60002318462D
:1018DC000837BD4680BD00BF10E000E080B582B087
:1018EC0000AF78607868FFF72DFF00BF0837BD4662
:1018FC0080BD80B586B000AF0346B9607A60FB73DB
:10190C0000237B61FFF742FF78617A68B9687869D8
:10191C00FFF790FF024697F90F3011461846FFF774
:10192C005FFF00BF1837BD4680BD80B582B000AFE9
:10193C000346FB7197F907301846FFF735FF00BFD8
:10194C000837BD4680BD80B582B000AF786078683E
:10195C00FFF7A2FF034618460837BD4680BD80B48A
:10196C0085B000AF78600023FB737B6893F821305F
:10197C00022B08D07B6804229A637B68002283F8D0
:10198C002020012320E07B681B681A687B681B6899
:10199C0022F00E021A607B681B681A687B681B6851
:1019AC0022F001021A607B681A6C7B68DB6B0121E8
:1019BC0001FA02F25A607B68012283F821207B68CD
:1019CC00002283F82020FB7B18461437BD4680BCD0
:1019DC007047000080B584B000AF78600023FB73C3
:1019EC007B6893F82130022B05D07B6804229A6324
:1019FC000123FB7351E07B681B681A687B681B68CA
:101A0C0022F00E021A607B681B681A687B681B68E0
:101A1C0022F001021A607B681B68224A934229D08B
:101A2C007B681B68204A934222D07B681B681F4A44
:101A3C0093421AD07B681B681D4A934212D07B6874
:101A4C001B681C4A93420AD07B681B681A4A934253
:101A5C0002D14FF480130EE04FF080730BE04FF483
:101A6C00803308E04FF4805305E04FF4807302E0BC
:101A7C00102300E00123114A53607B68012283F894
:101A8C0021207B68002283F820207B685B6B002B75
:101A9C0003D07B685B6B78689847FB7B18461037E4
:101AAC00BD4680BD080002401C00024030000240D0
:101ABC0044000240580002406C000240000002400A
:101ACC0080B48BB000AF7860396000237B62002358
:101ADC003B6261E101227B6A02FA03F3FB613B6822
:101AEC001B68FA691340BB61BA69FB699A4240F002
:101AFC0050813B685B68974A93425ED0954A93420B
:101B0C0075D8954A934258D0934A93426FD8934ACA
:101B1C00934252D0914A934269D8914A93424CD005
:101B2C008F4A934263D88F4A934246D08D4A934250
:101B3C005DD8122B2AD8122B59D801A252F823F0B7
:101B4C00C71B0008A11B0008B31B0008F51B0008ED
:101B5C00FB1B0008FB1B0008FB1B0008FB1B000801
:101B6C00FB1B0008FB1B0008FB1B0008FB1B0008F1
:101B7C00FB1B0008FB1B0008FB1B0008FB1B0008E1
:101B8C00FB1B0008A91B0008BD1B0008764A9342EA
:101B9C0013D02CE03B68DB683B6229E03B68DB68D8
:101BAC0004333B6224E03B68DB6808333B621FE094
:101BBC003B68DB680C333B621AE03B689B68002B8C
:101BCC0002D104233B6213E03B689B68012B05D1D7
:101BDC0008233B627B68FA691A6109E008233B62BF
:101BEC007B68FA695A6103E000233B6200E000BFA6
:101BFC00BB69FF2B01D87B6801E07B6804337B61F8
:101C0C00BB69FF2B02D87B6A9B0002E07B6A083B16
:101C1C009B003B617B691A680F213B6901FA03F356
:101C2C00DB431A40396A3B6901FA03F31A437B69B7
:101C3C001A603B685B6803F08053002B00F0A980AE
:101C4C004A4B9B69494A43F001039361474B9B699B
:101C5C0003F00103BB60BB68454A7B6A9B080233F7
:101C6C0052F82330FB607B6A03F003039B000F22C6
:101C7C0002FA03F3DB43FA681340FB607B683D4ACE
:101C8C0093420DD07B683C4A934207D07B683B4A19
:101C9C00934201D1022304E0032302E0012300E07C
:101CAC0000237A6A02F0030292009340FA6813430D
:101CBC00FB602F497B6A9B080233FA6841F82320AA
:101CCC003B685B6803F48033002B06D02C4B1A68FE
:101CDC002B49BB6913430B6006E0294B1A68BB699F
:101CEC00DB43274913400B603B685B6803F400330C
:101CFC00002B06D0224B5A682149BB6913434B6019
:101D0C0006E01F4B5A68BB69DB431D4913404B600F
:101D1C003B685B6803F48013002B06D0184B9A6861
:101D2C001749BB6913438B6006E0154B9A68BB6976
:101D3C00DB43134913408B603B685B6803F400136F
:101D4C00002B1FD00E4BDA680D49BB691343CB60D7
:101D5C001FE000BF00003210000031100000221004
:101D6C0000002110000012100000111000100240A1
:101D7C000000014000080140000C0140001001402F
:101D8C00000401400B4BDA68BB69DB430949134083
:101D9C00CB607B6A01337B623B681A687B6A22FAF0
:101DAC0003F3002B7FF496AE00BF00BF2C37BD466B
:101DBC0080BC70470004014080B483B000AF7860F1
:101DCC000B467B8013467B707B78002B03D07A8884
:101DDC007B681A6103E07B881A047B681A6100BF78
:101DEC000C37BD4680BC704780B586B000AF7860BC
:101DFC007B68002B01D1012372E27B681B6803F026
:101E0C000103002B00F08780924B5B6803F00C03FE
:101E1C00042B0CD08F4B5B6803F00C03082B12D1F6
:101E2C008C4B5B6803F48033B3F5803F0BD1894B4B
:101E3C001B6803F40033002B6CD07B685B68002BB1
:101E4C0068D101234CE27B685B68B3F5803F06D117
:101E5C00804B1B687F4A43F4803313602EE07B6811
:101E6C005B68002B0CD17B4B1B687A4A23F48033C4
:101E7C001360784B1B68774A23F4802313601DE0B2
:101E8C007B685B68B3F5A02F0CD1724B1B68714A51
:101E9C0043F4802313606F4B1B686E4A43F480330A
:101EAC0013600BE06B4B1B686A4A23F4803313609E
:101EBC00684B1B68674A23F4802313607B685B685C
:101ECC00002B13D0FFF710FC386108E0FFF70CFC77
:101EDC0002463B69D31A642B01D9032300E25D4B04
:101EEC001B6803F40033002BF0D014E0FFF7FCFB6D
:101EFC00386108E0FFF7F8FB02463B69D31A642B04
:101F0C0001D90323ECE1534B1B6803F40033002B82
:101F1C00F0D100E000BF7B681B6803F00203002BCC
:101F2C0063D04C4B5B6803F00C03002B0BD0494B7C
:101F3C005B6803F00C03082B1CD1464B5B6803F465
:101F4C008033002B16D1434B1B6803F00203002B8C
:101F5C0005D07B681B69012B01D00123C0E13D4BEF
:101F6C001B6823F0F8027B685B69DB00394913437B
:101F7C000B603AE07B681B69002B20D0364B0122AA
:101F8C001A60FFF7B1FB386108E0FFF7ADFB0246C2
:101F9C003B69D31A022B01D90323A1E12D4B1B68FA
:101FAC0003F00203002BF0D02A4B1B6823F0F8023D
:101FBC007B685B69DB00274913430B6015E0264BFC
:101FCC0000221A60FFF790FB386108E0FFF78CFBEA
:101FDC0002463B69D31A022B01D9032380E11D4B26
:101FEC001B6803F00203002BF0D17B681B6803F025
:101FFC000803002B3AD07B689B69002B19D0174B38
:10200C0001221A60FFF770FB386108E0FFF76CFBE8
:10201C0002463B69D31A022B01D9032360E10D4B15
:10202C005B6A03F00203002BF0D0012000F0D8FA19
:10203C001CE00A4B00221A60FFF756FB38610FE0D8
:10204C00FFF752FB02463B69D31A022B08D9032334
:10205C0046E100BF001002400000424280044242B0
:10206C00924B5B6A03F00203002BE9D17B681B687F
:10207C0003F00403002B00F0A6800023FB758B4BB0
:10208C00DB6903F08053002B0DD1884BDB69874A49
:10209C0043F08053D361854BDB6903F08053BB6005
:1020AC00BB680123FB75824B1B6803F48073002B08
:1020BC0018D17F4B1B687E4A43F480731360FFF783
:1020CC0013FB386108E0FFF70FFB02463B69D31A9C
:1020DC00642B01D9032303E1754B1B6803F4807354
:1020EC00002BF0D07B68DB68012B06D16F4B1B6A91
:1020FC006E4A43F0010313622DE07B68DB68002B12
:10210C000CD16A4B1B6A694A23F001031362674BBB
:10211C001B6A664A23F0040313621CE07B68DB68CD
:10212C00052B0CD1614B1B6A604A43F0040313620C
:10213C005E4B1B6A5D4A43F0010313620BE05B4B81
:10214C001B6A5A4A23F001031362584B1B6A574A05
:10215C0023F0040313627B68DB68002B15D0FFF7B8
:10216C00C3FA38610AE0FFF7BFFA02463B69D31A9B
:10217C0041F28832934201D90323B1E04B4B1B6AE5
:10218C0003F00203002BEED014E0FFF7ADFA386138
:10219C000AE0FFF7A9FA02463B69D31A41F28832EA
:1021AC00934201D903239BE0404B1B6A03F00203CB
:1021BC00002BEED1FB7D012B05D13C4BDB693B4A5F
:1021CC0023F08053D3617B68DB69002B00F08780A0
:1021DC00364B5B6803F00C03082B61D07B68DB6922
:1021EC00022B46D1334B00221A60FFF77DFA38617F
:1021FC0008E0FFF779FA02463B69D31A022B01D9A2
:10220C0003236DE0294B1B6803F00073002BF0D106
:10221C007B681B6AB3F5803F08D1244B5B6823F4C1
:10222C0000327B689B68214913434B601F4B5B68F2
:10223C0023F474127B68196A7B685B6A0B431B4935
:10224C0013434B601B4B01221A60FFF74DFA3861A8
:10225C0008E0FFF749FA02463B69D31A022B01D971
:10226C0003233DE0114B1B6803F00073002BF0D0EF
:10227C0035E0104B00221A60FFF736FA386108E09F
:10228C00FFF732FA02463B69D31A022B01D903231A
:10229C0026E0064B1B6803F00073002BF0D11EE008
:1022AC007B68DB69012B07D1012319E00010024088
:1022BC0000700040600042420B4B5B68FB60FB68A7
:1022CC0003F480327B681B6A9A4206D1FB6803F4E4
:1022DC0070127B685B6A9A4201D0012300E00023F4
:1022EC0018461837BD4680BD0010024080B584B03A
:1022FC0000AF786039607B68002B01D10123D0E0FE
:10230C006A4B1B6803F007033A689A4210D9674B73
:10231C001B6823F0070265493B6813430B60634B52
:10232C001B6803F007033A689A4201D00123B8E016
:10233C007B681B6803F00203002B20D07B681B68B2
:10234C0003F00403002B05D0594B5B68584A43F447
:10235C00E06353607B681B6803F00803002B05D017
:10236C00534B5B68524A43F460535360504B5B6869
:10237C0023F0F0027B689B684D4913434B607B68EC
:10238C001B6803F00103002B40D07B685B68012BBA
:10239C0007D1474B1B6803F40033002B15D10123E5
:1023AC007FE07B685B68022B07D1414B1B6803F015
:1023BC000073002B09D1012373E03D4B1B6803F024
:1023CC000203002B01D101236BE0394B5B6823F036
:1023DC0003027B685B68364913434B60FFF784F953
:1023EC00F8600AE0FFF780F90246FB68D31A41F265
:1023FC008832934201D9032353E02D4B5B6803F0E1
:10240C000C027B685B689B009A42EBD1274B1B68E4
:10241C0003F007033A689A4210D2244B1B6823F04E
:10242C00070222493B6813430B60204B1B6803F0E7
:10243C0007033A689A4201D0012332E07B681B689B
:10244C0003F00403002B08D0194B5B6823F4E06203
:10245C007B68DB68164913434B607B681B6803F091
:10246C000803002B09D0124B5B6823F460527B6885
:10247C001B69DB000E4913434B6000F021F8024648
:10248C000B4B5B681B0903F00F030A49CB5C22FA68
:10249C0003F3094A1360094B1B681846FFF7E2F86F
:1024AC00002318461037BD4680BD00BF00200240F7
:1024BC000010024088510008000000200400002099
:1024CC0090B48AB000AF294B3C1D0FCB84E80F00B1
:1024DC0040F201233B800023FB610023BB610023FE
:1024EC007B6200237B6100233B62214B5B68FB61B9
:1024FC00FB6903F00C03042B02D0082B03D02BE058
:10250C001C4B3B622BE0FB699B0C03F00F03283345
:10251C003B4413F8243C7B61FB6903F48033002BB0
:10252C0012D0134B5B685B0C03F0010328333B4464
:10253C0013F8283CBB617B690E4A03FB02F2BB69B2
:10254C00B2FBF3F37B6204E07B690B4A02FB03F3FF
:10255C007B627B6A3B6202E0064B3B6200BF3B6ADC
:10256C0018462837BD4690BC704700BF7051000814
:10257C000010024000127A0000093D0080B400AF48
:10258C00024B1B681846BD4680BC704700000020FB
:10259C0080B500AFFFF7F2FF0246054B5B681B0AE4
:1025AC0003F007030349CB5C22FA03F3184680BD02
:1025BC00001002409851000880B500AFFFF7DEFF15
:1025CC000246054B5B68DB0A03F007030349CB5C4F
:1025DC0022FA03F3184680BD0010024098510008FF
:1025EC0080B485B000AF78600A4B1B680A4AA2FB26
:1025FC0003235B0A7A6802FB03F3FB6000BFFB68F2
:10260C005A1EFA60002BF9D100BF00BF1437BD462B
:10261C0080BC704700000020D34D621080B582B0A2
:10262C0000AF78607B68002B01D1012376E07B68DA
:10263C005B6A002B08D17B685B68B3F5827F09D09D
:10264C007B680022DA6105E07B6800221A617B68F6
:10265C0000225A617B6800229A627B6893F85130A1
:10266C00DBB2002B06D17B68002283F850207868FF
:10267C00FEF7A0FD7B68022283F851207B681B6863
:10268C001A687B681B6822F040021A607B685B68E2
:10269C0003F482727B689B6803F404431A437B68DF
:1026AC00DB6803F400631A437B681B6903F00203C5
:1026BC001A437B685B6903F001031A437B689B69CF
:1026CC0003F400731A437B68DB6903F038031A4385
:1026DC007B681B6A03F0800342EA03017B689B6AF8
:1026EC0003F400527B681B680A431A607B689B6981
:1026FC001A0C7B681B6802F004025A607B681B682A
:10270C00DA697B681B6822F40062DA617B6800225C
:10271C005A657B68012283F851200023184608373C
:10272C00BD4680BD80B58CB000AFF860B9607A60F2
:10273C007B800123FB62002387F82B30FB6893F826
:10274C005030012B01D102238AE1FB68012283F86E
:10275C005020FEF7C9FF7862FB6893F8513087F878
:10276C002330FB685B68FB617B887B8397F82330A5
:10277C00012B0FD0FB69B3F5827F07D1FB689B68F7
:10278C00002B03D197F82330042B03D0022387F8B6
:10279C002B305BE1BB68002B05D07B68002B02D093
:1027AC007B88002B03D1012387F82B304EE1FB688B
:1027BC0093F85130DBB2042B03D0FB68052283F86D
:1027CC005120FB6800225A65FB687A689A63FB68A3
:1027DC007A88DA87FB687A889A87FB68BA681A6302
:1027EC00FB687A88DA86FB687A889A86FB6800220E
:1027FC001A64FB6800225A64FB681B681B6803F0B0
:10280C004003402B07D0FB681B681A68FB681B68E9
:10281C0042F040021A60FB68DB68B3F5006F78D1B8
:10282C00FB685B68002B02D07B8B012B66D1FB68AD
:10283C001B6B1A88FB681B68DA60FB681B6B9A1CA5
:10284C00FB681A63FB68DB8E9BB2013B9AB2FB6898
:10285C00DA8653E0FB681B689B6803F00203022BCB
:10286C001BD1FB68DB8E9BB2002B16D0FB6A012BB5
:10287C0013D1FB681B6B1A88FB681B68DA60FB685A
:10288C001B6B9A1CFB681A63FB68DB8E9BB2013BCB
:10289C009AB2FB68DA860023FB62FB681B689B68B4
:1028AC0003F00103012B19D1FB68DB8F9BB2002BCA
:1028BC0014D0FB681B68DA68FB689B6B92B21A80B9
:1028CC00FB689B6B9A1CFB689A63FB68DB8F9BB263
:1028DC00013B9AB2FB68DA870123FB62FEF704FF27
:1028EC0002467B6AD31ABA6B9A4207D8BB6BB3F118
:1028FC00FF3F03D0032387F82B30A7E0FB68DB8E68
:10290C009BB2002BA6D1FB68DB8F9BB2002BA1D115
:10291C007CE0FB685B68002B02D07B8B012B6BD1BE
:10292C00FB681A6BFB681B680C3312781A70FB6817
:10293C001B6B5A1CFB681A63FB68DB8E9BB2013B5A
:10294C009AB2FB68DA8657E0FB681B689B6803F059
:10295C000203022B1CD1FB68DB8E9BB2002B17D021
:10296C00FB6A012B14D1FB681A6BFB681B680C33D8
:10297C0012781A70FB681B6B5A1CFB681A63FB6895
:10298C00DB8E9BB2013B9AB2FB68DA860023FB62BA
:10299C00FB681B689B6803F00103012B19D1FB68D2
:1029AC00DB8F9BB2002B14D0FB681B68DA68FB68CA
:1029BC009B6BD2B21A70FB689B6B5A1CFB689A63B8
:1029CC00FB68DB8F9BB2013B9AB2FB68DA87012371
:1029DC00FB62FEF789FE02467B6AD31ABA6B9A42F7
:1029EC0003D8BB6BB3F1FF3F02D1BB6B002B03D100
:1029FC00032387F82B3029E0FB68DB8E9BB2002B7E
:102A0C00A2D1FB68DB8F9BB2002B9DD17A6AB96B8C
:102A1C00F86800F0B1F80346002B06D0012387F8C4
:102A2C002B30FB6820225A6510E0FB689B68002B5A
:102A3C000BD100237B61FB681B68DB687B61FB6847
:102A4C001B689B687B617B6900E000BFFB6801220F
:102A5C0083F85120FB68002283F8502097F82B3024
:102A6C0018463037BD4680BD80B588B000AFF860E1
:102A7C00B9603B601346FB71FEF736FE0246BB6A3B
:102A8C009B1A3A681344FB61FEF72EFEB861394B72
:102A9C001B685B011B0DFA6902FB03F37B6154E0BD
:102AAC003B68B3F1FF3F50D0FEF71EFE0246BB69F8
:102ABC00D31AFA699A4202D9FB69002B3DD1FB6803
:102ACC001B685A68FB681B6822F0E0025A60FB68BE
:102ADC005B68B3F5827F11D1FB689B68B3F5004F3F
:102AEC0004D0FB689B68B3F5806F07D1FB681B684B
:102AFC001A68FB681B6822F040021A60FB689B6A2C
:102B0C00B3F5005F0FD1FB681B681A68FB681B6884
:102B1C0022F400521A60FB681B681A68FB681B6879
:102B2C0042F400521A60FB68012283F85120FB68C2
:102B3C00002283F85020032317E07B69002B01D17E
:102B4C000023FB617B69013B7B61FB681B689A6816
:102B5C00BB681340BA689A420CBF01230023DBB256
:102B6C001A46FB799A429BD1002318462037BD4662
:102B7C0080BD00BF0000002080B586B002AFF860B9
:102B8C00B9607A607B680093BB6800228021F8688A
:102B9C00FFF76AFF0346002B07D0FB685B6D43F021
:102BAC002002FB685A65032300E000231846103707
:102BBC00BD4680BD80B582B000AF78607B68002BCD
:102BCC0001D1012341E07B6893F83D30DBB2002B4F
:102BDC0006D17B68002283F83C207868FEF734FB32
:102BEC007B68022283F83D207B681A687B6804337B
:102BFC001946104600F026FA7B68012283F846201D
:102C0C007B68012283F83E207B68012283F83F20F9
:102C1C007B68012283F840207B68012283F84120E5
:102C2C007B68012283F842207B68012283F84320D1
:102C3C007B68012283F844207B68012283F84520BD
:102C4C007B68012283F83D20002318460837BD46D7
:102C5C0080BD80B582B000AF78607B681B681B6953
:102C6C0003F00203022B22D17B681B68DB6803F0A4
:102C7C000203022B1BD17B681B686FF002021A61E6
:102C8C007B6801221A777B681B689B6903F003033E
:102C9C00002B03D0786800F0BAF905E0786800F0F2
:102CAC00ADF9786800F0BCF97B6800221A777B6874
:102CBC001B681B6903F00403042B22D17B681B687F
:102CCC00DB6803F00403042B1BD17B681B686FF0DB
:102CDC0004021A617B6802221A777B681B689B6965
:102CEC0003F44073002B03D0786800F090F905E0F2
:102CFC00786800F083F9786800F092F97B6800221C
:102D0C001A777B681B681B6903F00803082B22D118
:102D1C007B681B68DB6803F00803082B1BD17B68FE
:102D2C001B686FF008021A617B6804221A777B68B3
:102D3C001B68DB6903F00303002B03D0786800F0F9
:102D4C0066F905E0786800F059F9786800F068F9E0
:102D5C007B6800221A777B681B681B6903F01003E1
:102D6C00102B22D17B681B68DB6803F01003102B3F
:102D7C001BD17B681B686FF010021A617B680822FC
:102D8C001A777B681B68DB6903F44073002B03D054
:102D9C00786800F03CF905E0786800F02FF9786865
:102DAC0000F03EF97B6800221A777B681B681B6970
:102DBC0003F00103012B0ED17B681B68DB6803F069
:102DCC000103012B07D17B681B686FF001021A61AC
:102DDC00786800F00AF97B681B681B6903F08003B4
:102DEC00802B0ED17B681B68DB6803F08003802B83
:102DFC0007D17B681B686FF080021A61786800F05D
:102E0C0070FA7B681B681B6903F04003402B0ED1E2
:102E1C007B681B68DB6803F04003402B07D17B68A1
:102E2C001B686FF040021A61786800F002F97B6849
:102E3C001B681B6903F02003202B0ED17B681B68D9
:102E4C00DB6803F02003202B07D17B681B686FF035
:102E5C0020021A61786800F03BFA00BF0837BD46C3
:102E6C0080BD80B584B000AF786039607B6893F822
:102E7C003C30012B01D10223B3E07B68012283F8A3
:102E8C003C207B68022283F83D207B681B689B6892
:102E9C00FB60FB6823F07703FB60FB6823F47F4344
:102EAC00FB607B681B68FA689A603B681B68B3F52B
:102EBC00005F3ED0B3F5005F00F28780B3F5805F12
:102ECC0000F08580B3F5805F7FD8702B1AD0702B03
:102EDC007BD8602B50D0602B77D8502B3CD0502B0C
:102EEC0073D8402B58D0402B6FD8302B64D0302B5C
:102EFC006BD8202B60D0202B67D8002B5CD0102BEC
:102F0C005AD062E07B6818683B6899683B685A68DD
:102F1C003B68DB6800F065F97B681B689B68FB60AD
:102F2C00FB6843F07703FB607B681B68FA689A6068
:102F3C004EE07B6818683B6899683B685A683B6848
:102F4C00DB6800F04EF97B681B689A687B681B682D
:102F5C0042F480429A603BE07B6818683B68596891
:102F6C003B68DB681A4600F0C5F87B681B6850218B
:102F7C00184600F01CF92BE07B6818683B68596810
:102F8C003B68DB681A4600F0E3F87B681B6860213D
:102F9C00184600F00CF91BE07B6818683B68596810
:102FAC003B68DB681A4600F0A5F87B681B6840217B
:102FBC00184600F0FCF80BE07B681A683B681B684D
:102FCC001946104600F0F3F802E000BF00E000BF25
:102FDC007B68012283F83D207B68002283F83C202B
:102FEC00002318461037BD4680BD80B483B000AFB7
:102FFC00786000BF0C37BD4680BC704780B483B08E
:10300C0000AF786000BF0C37BD4680BC704780B401
:10301C0083B000AF786000BF0C37BD4680BC7047F2
:10302C0080B483B000AF786000BF0C37BD4680BC65
:10303C00704780B483B000AF786000BF0C37BD46DA
:10304C0080BC704780B485B000AF786039607B6815
:10305C001B68FB607B68254A934207D07B68B3F101
:10306C00804F03D07B68224A934208D1FB6823F03F
:10307C007003FB603B685B68FA681343FB607B681A
:10308C001A4A934207D07B68B3F1804F03D07B6818
:10309C00174A934208D1FB6823F44073FB603B68EA
:1030AC00DB68FA681343FB60FB6823F080023B6823
:1030BC005B691343FB607B68FA681A603B689A682B
:1030CC007B68DA623B681A687B689A627B68074A9D
:1030DC00934203D13B681A697B681A637B680122AF
:1030EC005A6100BF1437BD4680BC7047002C0140AC
:1030FC000004004080B487B000AFF860B9607A601B
:10310C00FB681B6A7B61FB681B6A23F00102FB688E
:10311C001A62FB689B693B613B6923F0F0033B61DE
:10312C007B681B013A6913433B617B6923F00A03FB
:10313C007B617A69BB6813437B61FB683A699A616E
:10314C00FB687A691A6200BF1C37BD4680BC7047A9
:10315C0080B487B000AFF860B9607A60FB681B6A16
:10316C0023F01002FB681A62FB689B697B61FB68A9
:10317C001B6A3B617B6923F470437B617B681B0397
:10318C007A6913437B613B6923F0A0033B61BB6805
:10319C001B013A6913433B61FB687A699A61FB68CE
:1031AC003A691A6200BF1C37BD4680BC704780B4B8
:1031BC0085B000AF786039607B689B68FB60FB680A
:1031CC0023F07003FB603A68FB68134343F007037A
:1031DC00FB607B68FA689A6000BF1437BD4680BC00
:1031EC00704780B487B000AFF860B9607A603B601C
:1031FC00FB689B687B617B6923F47F437B613B6845
:10320C001A027B681A43BB6813437A6913437B61C8
:10321C00FB687A699A6000BF1C37BD4680BC70475A
:10322C0080B485B000AF786039607B6893F83C302F
:10323C00012B01D1022341E07B68012283F83C2061
:10324C007B68022283F83D207B681B685B68FB600F
:10325C007B681B689B68BB60FB6823F07003FB609A
:10326C003B681B68FA681343FB607B681B68FA6851
:10327C005A607B681B68144A934209D07B681B68B0
:10328C00B3F1804F04D07B681B68104A93420CD179
:10329C00BB6823F08003BB603B685B68BA68134370
:1032AC00BB607B681B68BA689A607B68012283F8F4
:1032BC003D207B68002283F83C20002318461437FD
:1032CC00BD4680BC704700BF002C0140000400408C
:1032DC0080B483B000AF786000BF0C37BD4680BCB3
:1032EC00704780B483B000AF786000BF0C37BD4628
:1032FC0080BC704780B582B000AF78607B68002BD3
:10330C0001D101233FE07B6893F83D30DBB2002B09
:10331C0006D17B68002283F83C207868FDF7B8FF63
:10332C007B68242283F83D207B681B68DA687B6805
:10333C001B6822F40052DA60786800F0C7FC7B68E6
:10334C001B681A697B681B6822F490421A617B68BF
:10335C001B685A697B681B6822F02A025A617B68D9
:10336C001B68DA687B681B6842F40052DA607B6881
:10337C0000221A647B68202283F83D207B6820227F
:10338C0083F83E20002318460837BD4680BD80B523
:10339C008AB002AFF860B9603B601346FB80002333
:1033AC007B61FB6893F83D30DBB2202B7CD1BB6892
:1033BC00002B02D0FB88002B01D1012375E0FB68A8
:1033CC0093F83C30012B01D102236EE0FB68012203
:1033DC0083F83C20FB6800221A64FB68212283F8E6
:1033EC003D20FEF781F97861FB68FA889A84FB68C6
:1033FC00FA88DA84FB689B68B3F5805F08D1FB68B8
:10340C001B69002B04D10023FB61BB68BB6103E08B
:10341C00BB68FB610023BB61FB68002283F83C2086
:10342C002AE03B6800937B6900228021F86800F059
:10343C00B3FA0346002B01D0032336E0FB69002BC3
:10344C000BD1BB691B881A46FB681B68C2F30802C8
:10345C005A60BB690233BB6107E0FB691A78FB68F1
:10346C001B685A60FB690133FB61FB68DB8C9BB208
:10347C00013B9AB2FB68DA84FB68DB8C9BB2002BB5
:10348C00CFD13B6800937B6900224021F86800F0A3
:10349C0083FA0346002B01D0032306E0FB682022AD
:1034AC0083F83D20002300E0022318462037BD4658
:1034BC0080BD80B58AB002AFF860B9603B6013463E
:1034CC00FB8000237B61FB6893F83E30DBB2202B42
:1034DC0040F08C80BB68002B02D0FB88002B01D104
:1034EC00012384E0FB6893F83C30012B01D10223CB
:1034FC007DE0FB68012283F83C20FB6800221A6403
:10350C00FB68222283F83E20FB6800221A63FEF738
:10351C00EBF87861FB68FA889A85FB68FA88DA859B
:10352C00FB689B68B3F5805F08D1FB681B69002BB7
:10353C0004D10023FB61BB68BB6103E0BB68FB618A
:10354C000023BB61FB68002283F83C2043E03B680E
:10355C0000937B6900222021F86800F01DFA0346D5
:10356C00002B01D0032342E0FB69002B0CD1FB683C
:10357C001B685B689BB2C3F308039AB2BB691A80E1
:10358C00BB690233BB611FE0FB689B68B3F5805FCE
:10359C0007D0FB689B68002B0AD1FB681B69002BCA
:1035AC0006D1FB681B685B68DAB2FB691A7008E02D
:1035BC00FB681B685B68DBB203F07F03DAB2FB6964
:1035CC001A70FB690133FB61FB68DB8D9BB2013B1D
:1035DC009AB2FB68DA85FB68DB8D9BB2002BB6D107
:1035EC00FB68202283F83E20002300E002231846CB
:1035FC002037BD4680BD000080B58AB000AF786032
:10360C007B681B681B687B627B681B68DB683B62A2
:10361C007B681B685B69FB610023BB6100237B61DA
:10362C007B6A03F00F03BB61BB69002B0DD17B6A76
:10363C0003F02003002B08D03B6A03F02003002B7F
:10364C0003D0786800F099FA7BE1BB69002B00F09D
:10365C00B180FB6903F00103002B05D13B6A03F435
:10366C009073002B00F0A6807B6A03F00103002B03
:10367C000AD03B6A03F48073002B05D07B681B6C6B
:10368C0043F001027B681A647B6A03F00403002B8D
:10369C000AD0FB6903F00103002B05D07B681B6C7F
:1036AC0043F002027B681A647B6A03F00203002B6E
:1036BC000AD0FB6903F00103002B05D07B681B6C5F
:1036CC0043F004027B681A647B6A03F00803002B46
:1036DC000FD03B6A03F02003002B04D1FB6903F0ED
:1036EC000103002B05D07B681B6C43F008027B6840
:1036FC001A647B681B6C002B00F01E817B6A03F044
:10370C002003002B07D03B6A03F02003002B02D0D0
:10371C00786800F032FA7B681B685B6903F0400341
:10372C00002B14BF01230023DBB27B617B681B6C75
:10373C0003F00803002B02D17B69002B31D0786891
:10374C0000F074F97B681B685B6903F04003002B85
:10375C0023D07B681B685A697B681B6822F0400287
:10376C005A617B689B6B002B13D07B689B6B764AF2
:10377C005A637B689B6B1846FEF72CF90346002BAB
:10378C0016D07B689B6B5B6B7A68926B1046984784
:10379C000EE0786800F0ECF80AE0786800F0E8F8E1
:1037AC0006E0786800F0E4F87B6800221A64C3E055
:1037BC0000BFC1E07B681B6B012B40F0A1807B6AD2
:1037CC0003F01003002B00F09B803B6A03F0100306
:1037DC00002B00F095800023FB607B681B681B6846
:1037EC00FB607B681B685B68FB60FB687B681B6825
:1037FC005B6903F04003002B4ED07B689B6B1B680E
:10380C005B683B823B8A002B00F098807B689B8D29
:10381C003A8A9A4280F092807B683A8ADA857B6891
:10382C009B6B9B69202B2BD07B681B68DA687B68B1
:10383C001B6822F48072DA607B681B685A697B68AB
:10384C001B6822F001025A617B681B685A697B680D
:10385C001B6822F040025A617B68202283F83E20CC
:10386C007B6800221A637B681B68DA687B681B68BC
:10387C0022F01002DA607B689B6B1846FEF76FF83B
:10388C007B689A8D7B68DB8D9BB2D31A9BB21946F1
:10389C00786800F076F851E07B689A8D7B68DB8D58
:1038AC009BB2D31A7B827B68DB8D9BB2002B47D0FB
:1038BC007B8A002B44D07B681B68DA687B681B68AA
:1038CC0022F49072DA607B681B685A697B681B680B
:1038DC0022F001025A617B68202283F83E207B682B
:1038EC0000221A637B681B68DA687B681B6822F00D
:1038FC001002DA607B8A1946786800F042F81FE003
:10390C007B6A03F08003002B08D03B6A03F0800332
:10391C00002B03D0786800F0C9F812E07B6A03F042
:10392C004003002B0DD03B6A03F04003002B08D062
:10393C00786800F00AF904E000BF02E000BF00E084
:10394C0000BF2837BD4680BD913A000880B483B0D3
:10395C0000AF786000BF0C37BD4680BC704780B4A8
:10396C0083B000AF786000BF0C37BD4680BC704799
:10397C0080B483B000AF786000BF0C37BD4680BC0C
:10398C00704780B483B000AF78600B467B8000BF7B
:10399C000C37BD4680BC704780B584B000AFF86072
:1039AC00B9603B601346FB712CE0BB69B3F1FF3F80
:1039BC0028D0BB69002B07D0FDF796FE02463B686A
:1039CC00D31ABA699A421DD2FB681B68DA68FB6885
:1039DC001B6822F4D072DA60FB681B685A69FB68BA
:1039EC001B6822F001025A61FB68202283F83D20FB
:1039FC00FB68202283F83E20FB68002283F83C20E1
:103A0C0003230FE0FB681B681A68BB681340BA6895
:103A1C009A420CBF01230023DBB21A46FB799A426F
:103A2C00C3D0002318461037BD4680BD80B483B088
:103A3C0000AF78607B681B68DA687B681B6822F4CF
:103A4C009072DA607B681B685A697B681B6822F08D
:103A5C0001025A617B681B6B012B07D17B681B68C9
:103A6C00DA687B681B6822F01002DA607B6820221F
:103A7C0083F83E207B6800221A6300BF0C37BD46DA
:103A8C0080BC704780B584B000AF78607B685B6A9F
:103A9C00FB60FB680022DA85FB680022DA84F86898
:103AAC00FFF766FF00BF1037BD4680BD80B485B000
:103ABC0000AF78607B6893F83D30DBB2212B3ED1B0
:103ACC007B689B68B3F5805F14D17B681B69002B06
:103ADC0010D17B681B6AFB60FB681B881A467B68ED
:103AEC001B68C2F308025A607B681B6A9A1C7B68CD
:103AFC001A6208E07B681B6A591C7A6811621A7892
:103B0C007B681B685A607B68DB8C9BB2013B9BB269
:103B1C007A681946D184002B0FD17B681B68DA6850
:103B2C007B681B6822F08002DA607B681B68DA68AD
:103B3C007B681B6842F04002DA60002300E002233D
:103B4C0018461437BD4680BC704780B582B000AFB4
:103B5C0078607B681B68DA687B681B6822F040021F
:103B6C00DA607B68202283F83D207868FFF7EEFE50
:103B7C00002318460837BD4680BD80B586B000AF1F
:103B8C0078607B6893F83E30DBB2222B40F0998052
:103B9C007B689B68B3F5805F17D17B681B69002B32
:103BAC0013D100237B617B689B6A3B617B681B683C
:103BBC005B689BB2C3F308039AB23B691A807B68BB
:103BCC009B6A9A1C7B689A6226E07B689B6A7B6185
:103BDC0000233B617B689B68B3F5805F07D07B68F3
:103BEC009B68002B0AD17B681B69002B06D17B6874
:103BFC001B685B68DAB27B691A7008E07B681B682B
:103C0C005B68DBB203F07F03DAB27B691A707B6806
:103C1C009B6A5A1C7B689A627B68DB8D9BB2013B6A
:103C2C009BB27A681946D185002B48D17B681B68FA
:103C3C00DA687B681B6822F02002DA607B681B68FC
:103C4C00DA687B681B6822F48072DA607B681B6818
:103C5C005A697B681B6822F001025A617B6820223A
:103C6C0083F83E207B681B6B012B23D17B680022E1
:103C7C001A637B681B68DA687B681B6822F0100289
:103C8C00DA607B681B681B6803F01003102B0AD1E9
:103C9C000023FB607B681B681B68FB607B681B68F0
:103CAC005B68FB60FB687B689B8D19467868FFF747
:103CBC0068FE02E07868FFF752FE002302E0002362
:103CCC0000E0022318461837BD4680BD80B584B08D
:103CDC0000AF78607B681B681B6923F440517B68DC
:103CEC00DA687B681B680A431A617B689A687B6890
:103CFC001B691A437B685B691343BB607B681B6859
:103D0C00DB6823F4B05323F00C037A681268B968AB
:103D1C000B43D3607B681B685B6923F440717B6841
:103D2C009A697B681B680A435A617B681B682C4A3A
:103D3C00934203D1FEF740FCF86002E0FEF728FC4A
:103D4C00F860FA6813469B0013449A001A447B6887
:103D5C005B689B00B2FBF3F3224AA2FB03235B09D3
:103D6C001901FA6813469B0013449A001A447B68A5
:103D7C005B689B00B2FBF3F21A4BA3FB02035B09DB
:103D8C00642000FB03F3D31A1B013233154AA2FB48
:103D9C0003235B0903F0F0031944FA6813469B00F4
:103DAC0013449A001A447B685B689B00B2FBF3F2E5
:103DBC000C4BA3FB02035B09642000FB03F3D31A37
:103DCC001B013233074AA2FB03235B0903F00F02EA
:103DDC007B681B680A449A6000BF1037BD4680BDE3
:103DEC00003801401F85EB51014B1868704700BF2C
:103DFC000C00002070B500260C4D0D4C641BA4105B
:103E0C00A64209D101F088F800260A4D0A4C641B21
:103E1C00A410A64205D170BD55F8043B9847013655
:103E2C00EEE755F8043B98470136F2E738520008A4
:103E3C0038520008385200083C520008034602442D
:103E4C00934200D1704703F8011BF9E70FB40A4BFA
:103E5C0013B51C6824B1A36913B9204600F06EFA9F
:103E6C0005AB2046049AA168019300F071FC02B0E6
:103E7C00BDE8104004B070470C00002038B5084B6A
:103E8C0005461C6824B1A36913B9204600F056FA04
:103E9C0029462046A268BDE8384000F01FBF00BF8D
:103EAC000C00002070B50E46054618B183690BB99D
:103EBC0000F044FAAB69AC6813B9284600F03EFA3E
:103ECC002C4B9C4220D16C68636EDB0705D4A38914
:103EDC00980502D4A06D00F0CFFAA38919071DD55F
:103EEC002369DBB1013EA36816F8011F013BA360F7
:103EFC0039BB002B38DA22460A21284600F048F854
:103F0C00013011D00A2511E01B4B9C4201D1AC6849
:103F1C00DAE71A4B9C4208BFEC68D5E721462846E5
:103F2C0000F088F80028DDD04FF0FF35636EDA071B
:103F3C0005D4A3899B0502D4A06D00F09EFA2846F7
:103F4C0070BD002B04DAA2699A4206DC0A2904D05F
:103F5C0023685A1C22601970C5E72246284600F0D7
:103F6C0017F80130BFD1DFE70A2523685A1C2260FD
:103F7C001D70DBE7C4510008E4510008A45100088F
:103F8C00024B01461868FFF78DBF00BF0C000020E4
:103F9C00F8B50E461446054618B183690BB900F006
:103FAC00CDF9214B9C422BD16C68A369A360A389EA
:103FBC001A072FD523696BB323692068F6B2C01A90
:103FCC0063693746834204DC2146284600F022F917
:103FDC0030BBA3680130013BA36023685A1C2260EC
:103FEC001E706369834204D0A389DB0706D50A2EB1
:103FFC0004D12146284600F00DF988B93846F8BDA1
:10400C000A4B9C4201D1AC68CFE7094B9C4208BFDC
:10401C00EC68CAE72146284600F00CF80028CBD003
:10402C004FF0FF37EAE700BFC4510008E451000825
:10403C00A4510008324B70B51D6806460C4625B1DC
:10404C00AB6913B9284600F079F92E4B9C420FD17D
:10405C006C68A389B4F90C2019072CD4DD0611D493
:10406C000923336042F040034FF0FF30A3813EE060
:10407C00254B9C4201D1AC68EBE7244B9C4208BF1A
:10408C00EC68E6E7580712D5616B41B104F14403C3
:10409C00994202D0304600F057FA00236363A3899B
:1040AC0023F02403A3810023636023692360A38985
:1040BC0043F00803A38123694BB9A38903F420734C
:1040CC00B3F5007F03D02146304600F0FDF9A089FE
:1040DC00B4F90C2010F001030AD00023A36063692B
:1040EC005B42A361236943B910F08000BAD170BD63
:1040FC00810758BF6369A360F4E70020F7E700BFAE
:10410C000C000020C4510008E4510008A451000820
:10411C008A89F8B5054610070C4657D44B68002B16
:10412C0004DC0B6C002B01DC0020F8BDE66A002ED1
:10413C00FAD0002312F480522F682B6032D0606DBD
:10414C00A3895A0705D56368C01A636B0BB1236C3E
:10415C00C01A00230246E66A2846216AB047431C6F
:10416C00A38906D129681D292CD8294ACA40D6070B
:10417C0028D5002262602269D904226004D5421C31
:10418C0001D12B6803B96065616B2F600029CBD01E
:10419C0004F14403994202D0284600F0D5F90020DE
:1041AC006063C2E7216A01232846B047411CC7D18E
:1041BC002B68002BC4D01D2B01D0162B01D12F60E6
:1041CC00B2E7A38943F04003A381AEE70F69002F48
:1041DC00AAD0930718BF00230E6808BF4B69F61BC3
:1041EC000F608B60002E9FDD33463A462846216ACD
:1041FC00D4F828C0E047002806DCA3894FF0FF3034
:10420C0043F04003A38190E70744361AEAE700BF66
:10421C000100402038B50B6905460C4613B9002542
:10422C00284638BD18B183690BB900F087F8144BD8
:10423C009C421BD16C68B4F90C30002BEFD0626E31
:10424C00D00704D4990502D4A06D00F015F92846C6
:10425C002146FFF75DFF636E0546DA07E0D4A389BC
:10426C009B05DDD4A06D00F008F9D9E7054B9C4205
:10427C0001D1AC68DFE7044B9C4208BFEC68DAE77D
:10428C00C4510008E4510008A4510008002310B5E3
:10429C000446C0E90033C0E904338360818143667E
:1042AC00C2818361194608225C30FFF7C7FD054BBC
:1042BC0024626362044BA362044BE362044B2363EA
:1042CC0010BD00BF994D0008BB4D0008F34D000810
:1042DC00174E0008014900F0AFB800BF214200089A
:1042EC00682270B54D1E55430E4605F1740100F061
:1042FC0093F9044640B10021C0E900160C30A060CF
:10430C0005F16802FFF79AFD204670BD014800F0E8
:10431C00B3B800BF01030020014800F0AEB800BFE5
:10432C0001030020014800F0A7B800BF02030020E1
:10433C00014800F0A2B800BF0203002010B50446EB
:10434C00FFF7F0FFA3691BB1BDE81040FFF7F0BF0A
:10435C00C4E912332365134B134A1B68A262A342B0
:10436C0008BF0123204608BFA36100F01FF860605E
:10437C00204600F01BF8A060204600F017F8002241
:10438C000421E0606068FFF781FF01220921A06829
:10439C00FFF77CFF02221221E068FFF777FF012371
:1043AC00A361D1E7A0510008E1420008F8B5074627
:1043BC00FFF7ACFF1E4B1E68B36913B93046FFF70D
:1043CC00BDFF4836D6E90134013B03D533680BB346
:1043DC003668F7E7B4F90C50D5B9164B04F1580010
:1043EC00E360656600F047F8FFF796FF0822294660
:1043FC00C4E90155C4E904552560A56104F15C00CC
:10440C00FFF71CFDC4E90D55C4E912552046F8BD53
:10441C006834D9E704213846FFF762FF0446306060
:10442C000028D5D1FFF778FF0C233B60EEE700BFE7
:10443C00A05100080100FFFF2DE9F843064688460D
:10444C00002700F14804D4E90195B9F1010905D51B
:10445C002468002CF7D13846BDE8F883AB89012BD2
:10446C0007D9B5F90E30013303D029463046C04781
:10447C0007436835E9E770477047704770B50E46DB
:10448C00B1F90E10144600291D4696B008DA002228
:10449C00B6F90C302A601A0610D44FF480630EE083
:1044AC006A4600F0D9FC0028F1DB019A02F4704254
:1044BC00A2F500535A425A412A60EEE740230020ED
:1044CC00236016B070BD00008B8973B59D0706463E
:1044DC000C4607D504F14703236023610123636174
:1044EC0002B070BD6A4601ABFFF7C8FF00990546E4
:1044FC00304600F091F848B9B4F90C309A05EFD475
:10450C0023F0030343F00203A381E3E70D4BB362F3
:10451C00A389206043F08003A381009B2061636129
:10452C00019B5BB13046B4F90E1000F0A7FC28B12A
:10453C00A38923F0030343F00103A381A08905435E
:10454C00A581CDE7E142000838B50546002940D0E9
:10455C0051F8043C0C1F002BB8BFE41800F0BEFC53
:10456C001C4A136833B9636014602846BDE83840B0
:10457C0000F0BABCA34208D9206821188B4201BFB5
:10458C0019685B6809182160EDE71A465B680BB186
:10459C00A342FAD911685018A0420BD120680144EB
:1045AC00501883421160E0D118685B6801441160B7
:1045BC005360DAE702D90C232B60D6E72068211868
:1045CC008B4201BF19685B680918216063605460F5
:1045DC00CBE738BD0403002070B50E4E0C46316895
:1045EC00054611B900F0C2FB30602146284600F0A8
:1045FC00BDFB431C0AD0C41C24F00304A04207D00A
:10460C00211A284600F0B2FB013001D14FF0FF34E3
:10461C00204670BD080300202DE9F041CD1C25F08B
:10462C00030508350C2D38BF0C25002D074601DB82
:10463C00A94205D90C2300263B603046BDE8F08129
:10464C002E4E00F04BFC33681C4634BB29463846D2
:10465C00FFF7C2FF431C04464DD134682646002E9A
:10466C0040D123683146384604EB030800F07EFB4A
:10467C0080453AD1216803356D1A25F003050835BC
:10468C000C2D38BF0C2538462946FFF7A5FF013005
:10469C002BD023682B4423600EE02268521B1ED4BF
:1046AC000B2A16D96119A342256018BF596063689B
:1046BC0008BF316062514B60384604F10B0600F0C4
:1046CC0013FC26F00706231DF21AB6D09B1BA35031
:1046DC00B3E76268A3420CBF32605A60ECE7234632
:1046EC006468B2E734467668B9E70C2338463B6019
:1046FC0000F0FAFBA1E72560DEE700BF0403002011
:10470C00936810B4013B002B936007DA9469A342C1
:10471C0001DB0A2902D110BCFFF73ABC1368581C04
:10472C0010601970084610BC7047F8B506460F4665
:10473C001446D518AC4201D1002007E03A46304669
:10474C0014F8011BFFF7DCFF431CF3D1F8BD00008C
:10475C002DE9F04F0D461446984606469DB018B10B
:10476C0083690BB9FFF7EAFD894B9D421BD1756834
:10477C006B6ED90705D4AB899A0502D4A86DFFF7E7
:10478C007BFEAB891B0701D52B69EBB9294630465B
:10479C00FFF750FCC0B16B6EDC070ED54FF0FF304D
:1047AC001DB0BDE8F08F7B4B9D4201D1B568DFE7B2
:1047BC00794B9D4208BFF568DAE7AB899805EDD4D3
:1047CC00A86DFFF75AFEE9E70023099320238DF823
:1047DC00293030234FF00109CDF80C80DFF8BC8173
:1047EC008DF82A3023469A4613F8012B0AB1252A54
:1047FC00F9D1BAEB040B0BD05B4622462946304666
:10480C00FFF793FF013000F0AA80099A5A440992ED
:10481C009AF80030002B00F0A28000234FF0FF32FA
:10482C00CDE905230AF1010A049307938DF853305F
:10483C001A935446052214F8011B584800F040FB0B
:10484C00049AD8B9D10644BF20238DF853301307EE
:10485C0044BF2B238DF853309AF800302A2B15D0F7
:10486C00544600204FF00A0C079A214611F8013BE0
:10487C00303B092B4ED9B0B1079214E0A0EB0803E2
:10488C0009FA03F31343A2460493D2E7039B191DC1
:10489C001B680391002BBBBF5B4242F002020793E3
:1048AC000793B8BF049223782E2B0CD163782A2B54
:1048BC0035D1039B02341A1D1B680392002BB8BF21
:1048CC004FF0FF330593DFF8D8A003225046217830
:1048DC0000F0F6FA40B14023A0EB0A0003FA00F016
:1048EC00049B01340343049314F8011B06222D4846
:1048FC008DF8281000F0E4FA00283FD02A4B1BBB9F
:10490C00039B073323F0070308330393099B3B44B2
:10491C00099367E70C4601200CFB0232A5E7002344
:10492C004FF00A0C194601340593204610F8012B60
:10493C00303A092A03D9002BC5D00591C3E70446A8
:10494C0001230CFB0121F0E703AB00932A46304610
:10495C00164B04A9AFF300800746781CD6D16B6EBA
:10496C00D90705D4AB899A0502D4A86DFFF785FD4C
:10497C00AB895B063FF512AF099811E703AB0093C7
:10498C002A463046094B04A900F082F8E4E700BF40
:10499C00C4510008E4510008A45100080452000856
:1049AC000A5200080E5200080000000037470008A9
:1049BC002DE9F047164699468A680B6907469342DB
:1049CC00B8BF1346336091F843200C46DDF82080C5
:1049DC000AB1013333602368990642BF336802334E
:1049EC003360256815F0060506D104F1190AE36851
:1049FC0032689B1AAB4228DC94F84320131E2268C1
:104A0C0018BF012392062DD44946384604F14302BF
:104A1C00C047013020D02368E56803F00603042B5F
:104A2C0018BF002532684FF00006A36808BFAD1A06
:104A3C00226908BF25EAE5759342C4BF9B1AED189D
:104A4C001A34B5421AD1002008E0012352464946D7
:104A5C003846C047013003D14FF0FF30BDE8F08736
:104A6C000135C4E73020E11881F843005A1C94F852
:104A7C0045102244023382F84310C5E70123224635
:104A8C0049463846C0470130E6D00136D9E7000028
:104A9C002DE9FF470F7E9146782F80460C469A46AB
:104AAC000C9D01F1430207D8622F0AD8002F00F0A9
:104ABC00D980582F00F0A48004F1420584F842708C
:104ACC003AE0A7F16303152BF6D801A151F823F0B6
:104ADC00354B0008494B0008C54A0008C54A000878
:104AEC00C54A0008C54A0008494B0008C54A0008D9
:104AFC00C54A0008C54A0008C54A0008574C0008BA
:104B0C00794B0008394C0008C54A0008C54A000812
:104B1C00794C0008C54A0008794B0008C54A0008C2
:104B2C00C54A0008414C00082B681A1D1B682A60F6
:104B3C0004F1420584F842300123A4E0206829687E
:104B4C00060601F104030AD50E682B60002E03DA69
:104B5C002D23764284F843300A235E4819E00E6810
:104B6C0010F0400F2B6018BF36B2EFE72B682068AF
:104B7C00191D2960010601D51E6802E04606FBD509
:104B8C001E886F2F0CBF08230A235248002184F87B
:104B9C0043106568002DA8BF2168A560A4BF21F053
:104BAC00040121600EB9002D4DD01546B6FBF3F172
:104BBC0003FB1167C75D05F8017D3746BB420E4606
:104BCC00F4D9082B0BD12368DE0708D5236961685B
:104BDC009942DEBF302305F8013C05F1FF35521B2D
:104BEC0022614B4621464046CDF800A003AAFFF7B0
:104BFC00DFFE01304CD14FF0FF3004B0BDE8F08740
:104C0C00344881F845702968236851F8046B296091
:104C1C001D0614D5DF0744BF43F0200323601EB9E3
:104C2C00236823F0200323601023AFE7236843F0AD
:104C3C00200323607823284884F84530E3E759069D
:104C4C0048BFB6B2E6E71546BBE72B682668181DC9
:104C5C006169286035061B6801D5196002E0700691
:104C6C00FBD51980002315462361BAE72B68002178
:104C7C001A1D2A601D686268284600F021F908B1E7
:104C8C00401B606063682361002384F84330A8E70D
:104C9C002A46494640462369D0470130ABD02368A9
:104CAC009B0713D4E068039B9842B8BF1846A4E74F
:104CBC000123324649464046D04701309BD001354E
:104CCC00E36803995B1AAB42F2DCEBE7002504F1D5
:104CDC001906F5E7155200082652000870B50D4666
:104CEC001446064618B183690BB9FFF727FB1C4B1A
:104CFC009C4224D17468636ED80705D4A3899905A6
:104D0C0002D4A06DFFF7B8FBA368013B002BA36096
:104D1C0005DAA26993421CDBEBB20A2B19D023688B
:104D2C005A1C22601D70EDB2636EDA0705D4A3899C
:104D3C009B0502D4A06DFFF7A0FB284670BD094B64
:104D4C009C4201D1B468D6E7074B9C4208BFF4687B
:104D5C00D1E7294622463046FFF71AF90546E3E724
:104D6C00C4510008E4510008A451000838B50023D0
:104D7C00054D044608462B60FCF7FCFB431C02D196
:104D8C002B6803B1236038BD0C03002010B50C4612
:104D9C00B1F90E1000F0AEF80028ABBF636DA3891B
:104DAC001B1823F48053ACBF6365A38110BD2DE9A0
:104DBC00F0411F468B890546DB050C46164605D58A
:104DCC0002230022B1F90E1000F068F8A3893246D4
:104DDC0023F48053A38128463B46B4F90E10BDE85A
:104DEC00F04100F017B810B50C46B1F90E1000F0F8
:104DFC0055F8431CA38915BF606523F4805343F415
:104E0C008053A38118BFA38110BDB1F90E1000F01F
:104E1C0013B8000038B50446084611460022054D6B
:104E2C002A601A46FCF759FB431C02D12B6803B1CC
:104E3C00236038BD0C03002038B50023054D044613
:104E4C0008462B60FCF765FB431C02D12B6803B1B1
:104E5C00236038BD0C03002038B50023064D0446F2
:104E6C00084611462B60FCF75FFB431C02D12B68F4
:104E7C0003B1236038BD00BF0C03002038B50023FC
:104E8C00054D044608462B60FCF75DFB431C02D124
:104E9C002B6803B1236038BD0C03002038B50446E1
:104EAC00084611460022054D2A601A46FCF755FBB0
:104EBC00431C02D12B6803B1236038BD0C030020C6
:104ECC00034610B5C9B202449342184601D10020E2
:104EDC0003E0047801338C42F6D110BD0148FFF792
:104EEC00CBBA00BF000300200148FFF7C6BA00BFD1
:104EFC000003002038B50446084611460022054D33
:104F0C002A601A46FCF7CCFA431C02D12B6803B179
:104F1C00236038BD0C030020F8B500BFF8BC08BCFA
:104F2C009E467047F8B500BFF8BC08BC9E4670475B
:104F3C004C4544204F4E00004C4544206973204F93
:104F4C004E2E0A004C4544204F4646004C4544200A
:104F5C006973204F46462E0A000000000A0000002C
:104F6C0048656C6C6F210D00466F756E6420504E59
:104F7C003533322077697468206669726D77617297
:104F8C00652076657273696F6E3A2025642E2564F0
:104F9C000D0A000057616974696E6720666F722094
:104FAC00524649442F4E464320636172642E2E2E86
:104FBC000D000000466F756E64206361726420778B
:104FCC00697468205549443A200000002530327835
:104FDC00200000000D000000526573706F6E736549
:104FEC00206672616D6520707265616D626C652002
:104FFC00646F6573206E6F7420636F6E7461696E7D
:10500C002030783030464621000000005265737025
:10501C006F6E736520636F6E7461696E73206E6F53
:10502C002064617461210000526573706F6E73654A
:10503C00206C656E67746820636865636B73756D4F
:10504C0020646964206E6F74206D61746368206CD9
:10505C00656E677468210000526573706F6E7365BE
:10506C0020636865636B73756D20646964206E6F73
:10507C0074206D6174636820657870656374656411
:10508C0020636865636B73756D00000054727969F9
:10509C006E6720746F2077616B657570000000007F
:1050AC00446964206E6F742072656365697665204F
:1050BC0065787065637465642041434B2066726F3C
:1050CC006D20504E3533322100000000526563656F
:1050DC006976656420756E657870656374656420A7
:1050EC00636F6D6D616E6420726573706F6E736546
:1050FC00210000004661696C656420746F20646552
:10510C00746563742074686520504E35333200002A
:10511C00011401004D6F7265207468616E206F6E12
:10512C0065206361726420646574656374656421D1
:10513C0000000000466F756E642063617264207716
:10514C0069746820756E65787065637465646C79D4
:10515C00206C6F6E672055494421000025730D0AA1
:10516C000000000002030405060708090A0B0C0DD9
:10517C000E0F10100000FF00FF00000000000000E8
:10518C0000000000010203040607080900000000EB
:10519C0001020304100000200000000000000000C9
:1051AC0000000000000000000000000000000000F3
:1051BC0000000000000000000000000000000000E3
:1051CC0000000000000000000000000000000000D3
:1051DC0000000000000000000000000000000000C3
:1051EC0000000000000000000000000000000000B3
:1051FC000000000000000000232D302B2000686C04
:10520C004C006566674546470030313233343536DD
:10521C003738394142434445460030313233343516
:0C522C0036373839616263646566000043
:045238003101000838
:04523C000D01000858
:105240000024F40010000000010000001000002005
:1052500000000000C4510008E4510008A4510008F7
:10526000000000000000000000000000000000003E
:10527000000000000000000000000000000000002E
:10528000000000000000000000000000000000001E
:10529000000000000000000000000000000000000E
:1052A00000000000000000000000000000000000FE
:04000005080015F9E1
:00000001FF
